:020000040800F2
:10000000005000203D0F0008810F0008810F0008FC
:10001000810F0008810F0008810F00080000000018
:10002000000000000000000000000000810F000838
:10003000810F000800000000810F0008810F0008F8
:10004000810F0008810F0008810F0008810F000850
:10005000810F0008810F0008810F0008810F000840
:10006000810F0008810F0008810F0008810F000830
:10007000810F0008810F0008810F0008810F000820
:10008000810F0008810F0008810F0008810F000810
:10009000810F0008810F0008810F0008810F000800
:1000A000810F0008810F0008810F0008810F0008F0
:1000B000810F0008810F0008810F0008810F0008E0
:1000C000810F0008810F0008810F0008810F0008D0
:1000D000810F0008810F0008810F0008810F0008C0
:1000E000810F0008810F0008810F00080000000048
:1000F0000000000000000000000000000000000000
:1001000000000000000000005FF808F110B5054C89
:10011000237833B9044B13B10448AFF300800123B3
:10012000237010BD60040020000000006C13000864
:10013000084B10B51BB108480849AFF300800848C8
:10014000036803B910BD074B002BFBD0BDE810407E
:10015000184700BF000000006C1300086404002072
:100160005C0400200000000080B582B000AF786021
:100170007B682F4A934208D10420012100F0FEFD44
:100180000420002100F0FAFD4EE07B68294A9342EA
:1001900008D10820012100F0F1FD0820002100F025
:1001A000EDFD41E07B68244A934208D110200121F3
:1001B00000F0E4FD1020002100F0E0FD34E07B6859
:1001C0001E4A934208D12020012100F0D7FD2020B3
:1001D000002100F0D3FD27E07B68194A934208D143
:1001E0004020012100F0CAFD4020002100F0C6FDA2
:1001F0001AE07B68134A934208D18020012100F065
:10020000BDFD8020002100F0B9FD0DE07B680E4AA5
:10021000934209D14FF48070012100F0AFFD4FF4FB
:100220008070002100F0AAFD0837BD4680BD00BFE8
:1002300000080140000C0140001001400014014082
:1002400000180140001C01400020014080B500AFB3
:100250000120012100F092FD0120002100F08EFD1F
:1002600080BD00BF80B489B000AF786039600023E2
:10027000FB6100233B610023BB610023FB60002383
:100280007B610023BB603B68DB7803F00F03FB61FD
:100290003B68DB7803F01003002B05D03B689B78AC
:1002A0001A46FB691343FB613B681B88DBB2002BDA
:1002B00044D07B681B687B610023BB6138E0BB696D
:1002C000012202FA03F3FB603B681B881A46FB68B5
:1002D00013403B613A69FB689A4226D1BB699B0097
:1002E000FB60FB680F2202FA03F3BB60BB68DB43D1
:1002F0007A6913407B61FB68FA6902FA03F37A6951
:1003000013437B613B68DB78282B05D1BB69012255
:100310009A407B685A6108E03B68DB78482B04D13F
:10032000BB6901229A407B681A61BB690133BB61DA
:10033000BB69072BC3D97B687A691A603B681B8845
:10034000FF2B4AD97B685B687B610023BB613EE081
:10035000BB6908331A4601239340FB603B681B8846
:100360001A46FB6813403B613A69FB689A422BD1FD
:10037000BB699B00FB60FB680F2202FA03F3BB60C2
:10038000BB68DB437A6913407B61FB68FA6902FA58
:1003900003F37A6913437B613B68DB78282B07D131
:1003A000BB6908331A46012303FA02F27B685A61DB
:1003B0003B68DB78482B07D1BB6908331A46012319
:1003C00003FA02F27B681A61BB690133BB61BB6946
:1003D000072BBDD97B687A695A602437BD465DF822
:1003E000047B704780B483B000AF78607B684FF6C1
:1003F000FF721A807B6802229A707B680422DA708E
:100400000C37BD465DF8047B704700BF80B485B0F3
:1004100000AF78600B467B800023FB737B689A6893
:100420007B881340002B02D00123FB7301E00023E3
:10043000FB73FB7B18461437BD465DF8047B7047A1
:1004400080B483B000AF78607B689B689BB218462D
:100450000C37BD465DF8047B704700BF80B485B0A3
:1004600000AF78600B467B800023FB737B68DA6803
:100470007B881340002B02D00123FB7301E0002393
:10048000FB73FB7B18461437BD465DF8047B704751
:1004900080B483B000AF78607B68DB689BB218469D
:1004A0000C37BD465DF8047B704700BF80B483B055
:1004B00000AF78600B467B807A887B681A610C37C6
:1004C000BD465DF8047B704780B483B000AF7860B0
:1004D0000B467B807A887B685A610C37BD465DF895
:1004E000047B704780B483B000AF78600B467B809C
:1004F00013467B707B78002B03D07A887B681A6167
:1005000002E07A887B685A610C37BD465DF8047B4F
:10051000704700BF80B483B000AF78600B467B802B
:100520007A887B68DA600C37BD465DF8047B7047DB
:1005300080B485B000AF78600B467B804FF4803389
:10054000FB607B88FA681343FB607B68FA689A61FA
:100550007A887B689A617B68FA689A617B689B6994
:10056000FB607B689B69FB601437BD465DF8047BCC
:10057000704700BF80B485B000AF03460A46FB71E8
:100580001346BB710023FB600C4B1B68FB60FA68D1
:100590004FF680731340FB60FB791B01FA6813432D
:1005A000FB60BB79FA681343FB60044AFB68136085
:1005B0001437BD465DF8047B704700BF0000014062
:1005C00080B483B000AF0346FB71044AFB7913602B
:1005D0000C37BD465DF8047B704700BF1C0020420D
:1005E00080B487B000AF78600B46FB7000233B619E
:1005F0000023FB6000237B610023BB607B68002B32
:1006000003DA2E4BDB697B6102E02C4B5B687B617C
:100610007B6803F470231B0CBB607B689BB23B615F
:100620007B6803F44013B3F5401F0AD17B6923F0C4
:1006300070637B61214A214B5B6823F070635360D8
:1006400021E07B6803F48013002B0ED0BB680322EB
:1006500002FA03F3FB60FB68DB437A6913407B61BA
:100660007B6943F070637B610DE07B685B0D1B0170
:100670001A463B699340DB437A6913407B617B698F
:1006800043F070637B61FB78002B08D07B685B0DC7
:100690001B011A463B6993407A6913437B617B686F
:1006A000002B03DA054A7B69D36102E0034A7B69C8
:1006B00053601C37BD465DF8047B70470000014065
:1006C00090B484B000AF03460A46FB711346BB7179
:1006D0000023FB60BB7903F003039B000F2202FAA7
:1006E00003F3FB601649BB799B08DBB21846144A3A
:1006F000BB799B08DBB2023352F82320FB68DB4353
:100700001A40831C41F823200D48BB799B08DBB2BB
:100710001C460B4ABB799B08DBB2023352F82320FC
:10072000F979BB7903F003039B0001FA03F31A4341
:10073000A31C40F823201037BD4690BC704700BF73
:100740000000014080B483B000AF7860034A7B684A
:1007500013600C37BD465DF8047B7047DC00204217
:1007600080B400AF134A134B1B6843F001031360BE
:100770001049104B5A68104B13404B600D4A0D4BFB
:100780001B6823F0847323F480331360094A094BF8
:100790001B6823F480231360064A064B5B6823F42E
:1007A000FE035360034B4FF41F029A60BD465DF891
:1007B000047B7047001002400000FFF880B483B053
:1007C00000AF7860134A134B1B6823F48033136027
:1007D000104A104B1B6823F4802313607B68B3F529
:1007E000803F03D0B3F5802F07D00DE0094A094BB5
:1007F0001B6843F48033136006E0064A054B1B6810
:1008000043F4A023136000BF0C37BD465DF8047BA2
:10081000704700BF0010024080B582B000AF0023D7
:100820003B600023FB710023BB71312000F012FB01
:100830000346BB713B6801333B603B68B3F5A06F77
:1008400002D0BB79002BF0D0312000F003FB03462F
:10085000002B02D00123FB7101E00023FB71FB7927
:1008600018460837BD4680BD80B485B000AF03464A
:10087000FB710023FB600A4B1B68FB60FB6823F0E5
:10088000F803FB60FB79DB00FA681343FB60044A62
:10089000FB6813601437BD465DF8047B704700BFEA
:1008A0000010024080B483B000AF0346FB71044ADD
:1008B000FB7913600C37BD465DF8047B704700BFC1
:1008C0000000424280B485B000AF786039600023F8
:1008D000FB600A4B5B68FB60FB6823F47C13FB60E6
:1008E0007A683B681343FA681343FB60034AFB686A
:1008F00053601437BD465DF8047B7047001002401A
:1009000080B483B000AF0346FB71044AFB791360E7
:100910000C37BD465DF8047B704700BF6000424263
:1009200080B485B000AF78600023FB60094B5B6842
:10093000FB60FB6823F00303FB60FA687B681343EA
:10094000FB60044AFB6853601437BD465DF8047BC6
:10095000704700BF0010024080B400AF054B5B68D9
:10096000DBB203F00C03DBB21846BD465DF8047B36
:10097000704700BF0010024080B485B000AF7860BF
:100980000023FB60094B5B68FB60FB6823F0F0030E
:10099000FB60FA687B681343FB60044AFB685360A2
:1009A0001437BD465DF8047B704700BF001002405D
:1009B00080B485B000AF78600023FB60094B5B68B2
:1009C000FB60FB6823F4E063FB60FA687B68134319
:1009D000FB60044AFB6853601437BD465DF8047B36
:1009E000704700BF0010024080B485B000AF78604F
:1009F0000023FB60094B5B68FB60FB6823F46053DA
:100A0000FB607B68DB00FA681343FB60034AFB680A
:100A100053601437BD465DF8047B704700100240F8
:100A200080B483B000AF03460A46FB711346BB7126
:100A3000BB79002B08D00C490B4B1B78DAB2FB7941
:100A40001343DBB20B7009E00749074B1B78DAB29E
:100A5000FB79DB43DBB21340DBB20B700C37BD46D6
:100A60005DF8047B704700BF0910024080B483B07A
:100A700000AF7860034A7B6813600C37BD465DF8B1
:100A8000047B7047D800424280B485B000AF7860E4
:100A90000023FB60094B5B68FB60FB6823F4404369
:100AA000FB60FA687B681343FB60044AFB68536091
:100AB0001437BD465DF8047B704700BF001002404C
:100AC00080B483B000AF0346FB710C4B00221A7058
:100AD0000A4B00221A70FB79012B02D0042B04D0A0
:100AE00007E0064B01221A7003E0044B05221A703E
:100AF00000BF0C37BD465DF8047B704720100240F4
:100B000080B483B000AF0346FB71044AFB791360E5
:100B10000C37BD465DF8047B704700BF800442423D
:100B200080B483B000AF78600549054B1A6A7B68D2
:100B300013430B620C37BD465DF8047B704700BF62
:100B40000010024080B483B000AF0346FB71044A3A
:100B5000FB7913600C37BD465DF8047B704700BF1E
:100B60003C04424280B487B000AF786000237B61D0
:100B700000233B610023FB600023BB604D4B5B689F
:100B800003F00C037B617B69042B07D0082B09D091
:100B9000002B34D17B68484A1A6034E07B68464AAF
:100BA0001A6030E0434B5B6803F470133B61414BC8
:100BB0005B6803F48033FB603B699B0C02333B6151
:100BC000FB68002B06D13B693C4A02FB03F27B68C1
:100BD0001A6013E0374B5B6803F40033002B06D038
:100BE0003B69364A02FB03F27B681A6006E03B6908
:100BF000314A02FB03F27B681A6004E003E07B6881
:100C00002D4A1A6000BF2B4B5B6803F0F0037B6139
:100C10007B691B097B612A4A7B6913441B78DBB221
:100C2000BB607B681A68BB68DA407B685A60214BFE
:100C30005B6803F4E0637B617B691B0A7B61204A8C
:100C40007B6913441B78DBB2BB607B685A68BB6866
:100C5000DA407B689A60174B5B6803F460537B61F2
:100C60007B69DB0A7B61164A7B6913441B78DBB224
:100C7000BB607B685A68BB68DA407B68DA600D4B02
:100C80005B6803F440437B617B699B0B7B610D4A8E
:100C90007B6913441B78DBB2BB607B68DA68BB6896
:100CA000B2FBF3F27B681A611C37BD465DF8047B2A
:100CB000704700BF0010024000127A0000093D009A
:100CC000000000201000002080B483B000AF7860E6
:100CD0000B46FB70FB78002B06D00949084B5A697C
:100CE0007B6813434B6106E00549054B5A697B68F5
:100CF000DB4313404B610C37BD465DF8047B704706
:100D00000010024080B483B000AF78600B46FB70E7
:100D1000FB78002B06D00949084B9A697B6813437E
:100D20008B6106E00549054B9A697B68DB431340FC
:100D30008B610C37BD465DF8047B704700100240A4
:100D400080B483B000AF78600B46FB70FB78002B5B
:100D500006D00949084BDA697B681343CB6106E08A
:100D60000549054BDA697B68DB431340CB610C37DF
:100D7000BD465DF8047B70470010024080B483B02C
:100D800000AF78600B46FB70FB78002B06D009495A
:100D9000084BDA687B681343CB6006E00549054BD6
:100DA000DA687B68DB431340CB600C37BD465DF8E7
:100DB000047B70470010024080B483B000AF7860BD
:100DC0000B46FB70FB78002B06D00949084B1A69CB
:100DD0007B6813430B6106E00549054B1A697B6884
:100DE000DB4313400B610C37BD465DF8047B704755
:100DF0000010024080B483B000AF0346FB71044A88
:100E0000FB7913600C37BD465DF8047B704700BF6B
:100E10004004424280B483B000AF0346FB71044AF1
:100E2000FB7913600C37BD465DF8047B704700BF4B
:100E30004C00424280B483B000AF0346FB71044AC9
:100E4000FB7913700C37BD465DF8047B704700BF1B
:100E50000710024080B487B000AF0346FB71002347
:100E6000FB6000237B610023FB74FB795B09DBB231
:100E7000FB60FB68012B03D1124B1B687B6109E00F
:100E8000FB68022B03D10F4B1B6A7B6102E00D4B09
:100E90005B6A7B61FB7903F01F03FB60FB687A6987
:100EA00022FA03F303F00103002B02D00123FB74A9
:100EB00001E00023FB74FB7C18461C37BD465DF83F
:100EC000047B70470010024080B400AF044A044B1A
:100ED0005B6A43F080735362BD465DF8047B7047E4
:100EE0000010024080B485B000AF0346FB710023C0
:100EF000FB73094B9A68FB791340002B02D0012346
:100F0000FB7301E00023FB73FB7B18461437BD46DF
:100F10005DF8047B704700BF0010024080B483B0CE
:100F200000AF0346FB71044AFB7913700C37BD46D2
:100F30005DF8047B704700BF0A100240002103E007
:100F40000A4B5B584350043109480A4B42189A42F5
:100F5000F6D3094A02E0002342F8043B074B9A42C9
:100F6000F9D300F00FF800F035F970476C13000862
:100F70000000002060040020600400207C040020A9
:100F8000FEE7000080B500AF154A154B1B6843F023
:100F9000010313601249124B5A68124B13404B6005
:100FA0000F4A0F4B1B6823F0847323F480331360C4
:100FB0000B4A0B4B1B6823F480231360084A084B31
:100FC0005B6823F4FE035360054B4FF41F029A60E5
:100FD00000F07AF8044B4FF000629A6080BD00BFC9
:100FE000001002400000FFF800ED00E080B485B082
:100FF00000AF0023FB600023BB6000237B602D4B10
:101000005B6803F00C03FB60FB68042B07D0082B24
:1010100009D0002B34D1284B284A1A6034E0264BE3
:10102000264A1A6030E0234B5B6803F47013BB6000
:10103000204B5B6803F480337B60BB689B0C0233FE
:10104000BB607B68002B06D1BB681D4A02FB03F323
:10105000194A136013E0174B5B6803F40033002B4D
:1010600006D0BB68164A02FB03F3134A136006E07E
:10107000BB68124A02FB03F30F4A136004E003E06B
:101080000D4B0E4A1A6000BF0A4B5B6803F0F00379
:101090001B090C4AD35CDBB2FB60074B1A68FB6888
:1010A00022FA03F3044A13601437BD465DF8047B4B
:1010B000704700BF001002401400002000127A00A8
:1010C00000093D001800002080B500AF00F002F8D4
:1010D00080BD00BF80B483B000AF00237B600023DD
:1010E0003B603A4A394B1B6843F480331360374BFB
:1010F0001B6803F400333B607B6801337B603B6813
:10110000002B03D17B68B3F5A06FF0D12F4B1B6888
:1011100003F40033002B02D001233B6001E00023E5
:101120003B603B68012B4BD1294A294B1B6843F09C
:1011300010031360264A264B1B6823F00303136039
:10114000234A234B1B6843F0020313601F4A1F4BC3
:101150005B6853601D4A1D4B5B6853601B4A1B4B09
:101160005B6843F480635360184A184B5B6823F450
:101170007C135360154A154B5B6843F4E8135360C6
:10118000124A124B1B6843F08073136000BF0F4B71
:101190001B6803F00073002BF9D00C4A0B4B5B6803
:1011A00023F003035360094A084B5B6843F00203D2
:1011B000536000BF054B5B6803F00C03082BF9D1AB
:1011C0000C37BD465DF8047B704700BF001002403D
:1011D0000020024080B582B000AFFFF7D3FE1020A0
:1011E0000121FFF78FFD04200121FFF78BFD08206F
:1011F0000121FFF787FD1023FB714FF46343BB8090
:101200000223BB713B1D12481946FFF72BF84FF420
:10121000C853BB803B1D0F481946FFF723F8C02376
:10122000BB803B1D0C481946FFF71CF808484FF4DB
:1012300063410122FFF756F906484FF4C8510122D5
:10124000FFF750F90448C0210122FFF74BF9FEE7F0
:101250000010014000080140000C0140024B13B196
:10126000024800F005B87047000000007D12000839
:10127000014600200246034600F016B838B5084B78
:10128000084DED1AAC1018BFED1805D0013C55F80B
:10129000043D9847002CF9D1BDE8384000F05CB817
:1012A000580400205C0400202DE9F047254C064638
:1012B00025688846D5F8484192469946C4B3606887
:1012C0001F2817DC411C76B104EB8003C3F888A00B
:1012D000D4F88851012282401543022EC4F8885167
:1012E000C3F808911ED0831C6160002044F823805D
:1012F000BDE8F087144B03B34FF4C870AFF3008020
:101300000446D0B1D5F84831002784E88800384633
:10131000C5F848410121C4F88871C4F88C71002EC9
:10132000E1D0D1E7D4F88C311A43C4F88C21DAE744
:1013300005F5A674C5F84841C1E74FF0FF30BDE898
:10134000F08700BF6813000800000000F8B500BF78
:10135000F8BC08BC9E467047F8B500BFF8BC08BC96
:0C1360009E46704743000000280000205B
:10136C00000000000102030401020304060708093F
:10137C000204060800A24A0400000000000000005D
:10138C0001020304060708090000000014030020F2
:10139C007C030020E403002000000000000000009B
:1013AC000000000000000000000000000000000031
:1013BC0000000000000000000000000064130008A2
:1013CC000000000000000000000000000000000011
:1013DC000000000000000000000000000000000001
:1013EC0000000000000000000000000000000000F1
:1013FC0000000000000000000000000000000000E1
:10140C0000000000000000000000000000000000D0
:10141C0000000000000000000000000000000000C0
:10142C0000000000000000000000000000000000B0
:10143C0001000000000000000E33CDAB34126DE64D
:10144C00ECDE05000B0000000000000000000000B6
:10145C000000000000000000000000000000000080
:10146C000000000000000000000000000000000070
:10147C000000000000000000000000000000000060
:10148C000000000000000000000000000000000050
:1017BC005D120008310100080D0100080000000056
:0400000508000000EF
:00000001FF
