:020000040800F2
:100000000050002071110008B5110008B51100085A
:10001000B5110008B5110008B51100080000000076
:10002000000000000000000000000000B511000802
:10003000B511000800000000B5110008DD1F000820
:10004000B5110008B5110008B5110008B511000878
:10005000B5110008B5110008B5110008B511000868
:10006000B5110008B5110008B5110008B511000858
:10007000B5110008B5110008B5110008B511000848
:10008000B5110008B5110008B5110008B511000838
:10009000B5110008B5110008B5110008B511000828
:1000A000B5110008B5110008B5110008B511000818
:1000B000B5110008B5110008B5110008B511000808
:1000C000B5110008B5110008B5110008B5110008F8
:1000D000B5110008C1140008B5110008B5110008D9
:1000E000B5110008B5110008B511000800000000A6
:1000F0000000000000000000000000000000000000
:1001000000000000000000005FF808F110B5054C89
:10011000237833B9044B13B10448AFF300800123B3
:10012000237010BD6004002000000000682100085A
:10013000084B10B51BB108480849AFF300800848C8
:10014000036803B910BD074B002BFBD0BDE810407E
:10015000184700BF00000000682100086404002068
:100160005C0400200000000080B582B000AF1023C6
:10017000FB700223BB704FF4C8533B803B461F48C3
:10018000194600F0C1F8C0233B803B461C48194685
:1001900000F0BAF84FF463433B803B4619481946D8
:1001A00000F0B2F815484FF4C85100F0D1F91448E6
:1001B000C02100F0CDF913484FF4634100F0C8F9B5
:1001C00000237B6000237B6002E07B6801337B605F
:1001D0007B680D4A9342F8D908484FF4C85100F0A3
:1001E000C5F90748C02100F0C1F906484FF4634142
:1001F00000F0BCF90837BD4680BD00BF00080140D3
:10020000000C014000100140FF083D0080B582B0A5
:1002100000AF78607B682F4A934208D10420012107
:1002200000F000FE0420002100F0FCFD4EE07B68A1
:10023000294A934208D10820012100F0F3FD08204B
:10024000002100F0EFFD41E07B68244A934208D191
:100250001020012100F0E6FD1020002100F0E2FD59
:1002600034E07B681E4A934208D12020012100F02F
:10027000D9FD2020002100F0D5FD27E07B68194A38
:10028000934208D14020012100F0CCFD4020002104
:1002900000F0C8FD1AE07B68134A934208D1802021
:1002A000012100F0BFFD8020002100F0BBFD0DE02A
:1002B0007B680E4A934209D14FF48070012100F00F
:1002C000B1FD4FF48070002100F0ACFD0837BD4651
:1002D00080BD00BF00080140000C0140001001403B
:1002E0000014014000180140001C014000200140A2
:1002F00080B500AF0120012100F094FD0120002114
:1003000000F090FD80BD00BF80B489B000AF786080
:1003100039600023FB6100233B610023BB610023A4
:10032000FB6000237B610023BB603B68DB7803F04C
:100330000F03FB613B68DB7803F01003002B05D053
:100340003B689B781A46FB691343FB613B681B883B
:10035000DBB2002B44D07B681B687B610023BB6150
:1003600038E0BB69012202FA03F3FB603B681B889B
:100370001A46FB6813403B613A69FB689A4226D1F2
:10038000BB699B00FB60FB680F2202FA03F3BB60B2
:10039000BB68DB437A6913407B61FB68FA6902FA48
:1003A00003F37A6913437B613B68DB78282B05D123
:1003B000BB6901229A407B685A6108E03B68DB78A0
:1003C000482B04D1BB6901229A407B681A61BB6942
:1003D0000133BB61BB69072BC3D97B687A691A609B
:1003E0003B681B88FF2B4AD97B685B687B610023D5
:1003F000BB613EE0BB6908331A4601239340FB60B2
:100400003B681B881A46FB6813403B613A69FB68EE
:100410009A422BD1BB699B00FB60FB680F2202FA5A
:1004200003F3BB60BB68DB437A6913407B61FB6805
:10043000FA6902FA03F37A6913437B613B68DB785C
:10044000282B07D1BB6908331A46012303FA02F2AD
:100450007B685A613B68DB78482B07D1BB6908335E
:100460001A46012303FA02F27B681A61BB69013361
:10047000BB61BB69072BBDD97B687A695A60243799
:10048000BD465DF8047B704780B483B000AF7860F0
:100490007B684FF6FF721A807B6802229A707B6835
:1004A0000422DA700C37BD465DF8047B704700BF4C
:1004B00080B485B000AF78600B467B800023FB736F
:1004C0007B689A687B881340002B02D00123FB7362
:1004D00001E00023FB73FB7B18461437BD465DF833
:1004E000047B704780B483B000AF78607B689B6802
:1004F0009BB218460C37BD465DF8047B704700BFC1
:1005000080B485B000AF78600B467B800023FB731E
:100510007B68DA687B881340002B02D00123FB73D1
:1005200001E00023FB73FB7B18461437BD465DF8E2
:10053000047B704780B483B000AF78607B68DB6871
:100540009BB218460C37BD465DF8047B704700BF70
:1005500080B483B000AF78600B467B807A887B687C
:100560001A610C37BD465DF8047B704780B483B0D8
:1005700000AF78600B467B807A887B685A610C37C5
:10058000BD465DF8047B704780B483B000AF7860EF
:100590000B467B8013467B707B78002B03D07A88D8
:1005A0007B681A6102E07A887B685A610C37BD4625
:1005B0005DF8047B704700BF80B483B000AF786003
:1005C0000B467B807A887B68DA600C37BD465DF825
:1005D000047B704780B485B000AF78600B467B80A9
:1005E0004FF48033FB607B88FA681343FB607B68C1
:1005F000FA689A617A887B689A617B68FA689A617E
:100600007B689B69FB607B689B69FB601437BD4618
:100610005DF8047B704700BF80B485B000AF03462F
:100620000A46FB711346BB710023FB600C4B1B6831
:10063000FB60FA684FF680731340FB60FB791B0187
:10064000FA681343FB60BB79FA681343FB60044A02
:10065000FB6813601437BD465DF8047B704700BF2C
:100660000000014080B483B000AF0346FB71044A30
:10067000FB7913600C37BD465DF8047B704700BF03
:100680001C00204280B487B000AF78600B46FB703E
:1006900000233B610023FB6000237B610023BB60E0
:1006A0007B68002B03DA2E4BDB697B6102E02C4B6D
:1006B0005B687B617B6803F470231B0CBB607B6809
:1006C0009BB23B617B6803F44013B3F5401F0AD132
:1006D0007B6923F070637B61214A214B5B6823F0C7
:1006E0007063536021E07B6803F48013002B0ED00D
:1006F000BB68032202FA03F3FB60FB68DB437A6901
:1007000013407B617B6943F070637B610DE07B6824
:100710005B0D1B011A463B699340DB437A6913402A
:100720007B617B6943F070637B61FB78002B08D0B1
:100730007B685B0D1B011A463B6993407A69134342
:100740007B617B68002B03DA054A7B69D36102E099
:10075000034A7B6953601C37BD465DF8047B7047D4
:100760000000014090B484B000AF03460A46FB711C
:100770001346BB710023FB60BB7903F003039B00AE
:100780000F2202FA03F3FB601649BB799B08DBB228
:100790001846144ABB799B08DBB2023352F8232077
:1007A000FB68DB431A40831C41F823200D48BB79CA
:1007B0009B08DBB21C460B4ABB799B08DBB20233B9
:1007C00052F82320F979BB7903F003039B0001FA67
:1007D00003F31A43A31C40F823201037BD4690BCF6
:1007E000704700BF0000014080B483B000AF786064
:1007F000034A7B6813600C37BD465DF8047B704785
:10080000DC00204280B400AF134A134B1B6843F056
:10081000010313601049104B5A68104B13404B6092
:100820000D4A0D4B1B6823F0847323F4803313604F
:10083000094A094B1B6823F480231360064A064BC0
:100840005B6823F4FE035360034B4FF41F029A606E
:10085000BD465DF8047B7047001002400000FFF8C1
:1008600080B483B000AF7860134A134B1B6823F445
:1008700080331360104A104B1B6823F480231360ED
:100880007B68B3F5803F03D0B3F5802F07D00DE030
:10089000094A094B1B6843F48033136006E0064A9B
:1008A000054B1B6843F4A023136000BF0C37BD4603
:1008B0005DF8047B704700BF0010024080B582B035
:1008C00000AF00233B600023FB710023BB7131208C
:1008D00000F014FB0346BB713B6801333B603B688F
:1008E000B3F5A06F02D0BB79002BF0D0312000F01F
:1008F00005FB0346002B02D00123FB7101E000231E
:10090000FB71FB7918460837BD4680BD80B485B0C1
:1009100000AF0346FB710023FB600A4B1B68FB60C2
:10092000FB6823F0F803FB60FB79DB00FA681343F4
:10093000FB60044AFB6813601437BD465DF8047B16
:10094000704700BF0010024080B483B000AF034680
:10095000FB71044AFB7913600C37BD465DF8047BDC
:10096000704700BF0000424280B485B000AF78609D
:1009700039600023FB600A4B5B68FB60FB6823F473
:100980007C13FB607A683B681343FA681343FB608F
:10099000034AFB6853601437BD465DF8047B70471B
:1009A0000010024080B483B000AF0346FB71044ADC
:1009B000FB7913600C37BD465DF8047B704700BFC0
:1009C0006000424280B485B000AF78600023FB60D5
:1009D000094B5B68FB60FB6823F00303FB60FA686C
:1009E0007B681343FB60044AFB6853601437BD46C1
:1009F0005DF8047B704700BF0010024080B400AF78
:100A0000054B5B68DBB203F00C03DBB21846BD4656
:100A10005DF8047B704700BF0010024080B485B0D1
:100A200000AF78600023FB60094B5B68FB60FB68EC
:100A300023F0F003FB60FA687B681343FB60044A11
:100A4000FB6853601437BD465DF8047B704700BFF8
:100A50000010024080B485B000AF78600023FB60D6
:100A6000094B5B68FB60FB6823F4E063FB60FA689A
:100A70007B681343FB60044AFB6853601437BD4630
:100A80005DF8047B704700BF0010024080B485B061
:100A900000AF78600023FB60094B5B68FB60FB687C
:100AA00023F46053FB607B68DB00FA681343FB6050
:100AB000034AFB6853601437BD465DF8047B7047FA
:100AC0000010024080B483B000AF03460A46FB71B9
:100AD0001346BB71BB79002B08D00C490B4B1B781C
:100AE000DAB2FB791343DBB20B7009E00749074B1D
:100AF0001B78DAB2FB79DB43DBB21340DBB20B705D
:100B00000C37BD465DF8047B704700BF09100240FA
:100B100080B483B000AF7860034A7B6813600C3701
:100B2000BD465DF8047B7047D800424280B485B072
:100B300000AF78600023FB60094B5B68FB60FB68DB
:100B400023F44043FB60FA687B681343FB60044A6C
:100B5000FB6853601437BD465DF8047B704700BFE7
:100B60000010024080B483B000AF0346FB710C4B11
:100B700000221A700A4B00221A70FB79012B02D056
:100B8000042B04D007E0064B01221A7003E0044B4B
:100B900005221A7000BF0C37BD465DF8047B704714
:100BA0002010024080B483B000AF0346FB71044ABA
:100BB000FB7913600C37BD465DF8047B704700BFBE
:100BC0008004424280B483B000AF78600549054B91
:100BD0001A6A7B6813430B620C37BD465DF8047BD1
:100BE000704700BF0010024080B483B000AF0346DE
:100BF000FB71044AFB7913600C37BD465DF8047B3A
:100C0000704700BF3C04424280B487B000AF7860B8
:100C100000237B6100233B610023FB600023BB605A
:100C20004D4B5B6803F00C037B617B69042B07D0A1
:100C3000082B09D0002B34D17B68484A1A6034E075
:100C40007B68474A1A6030E0434B5B6803F47013DB
:100C50003B61414B5B6803F48033FB603B699B0C59
:100C600002333B61FB68002B06D13B693D4A02FB26
:100C700003F27B681A6013E0374B5B6803F40033C0
:100C8000002B06D03B69354A02FB03F27B681A60F1
:100C900006E03B69324A02FB03F27B681A6004E01B
:100CA00003E07B682D4A1A6000BF2B4B5B6803F0A2
:100CB000F0037B617B691B097B612B4A7B691344D1
:100CC0001B78DBB2BB607B681A68BB68DA407B6864
:100CD0005A60214B5B6803F4E0637B617B691B0A0C
:100CE0007B61214A7B6913441B78DBB2BB607B6864
:100CF0005A68BB68DA407B689A60174B5B6803F4FC
:100D000060537B617B69DB0A7B61174A7B69134413
:100D10001B78DBB2BB607B685A68BB68DA407B68D3
:100D2000DA600D4B5B6803F440437B617B699B0B8E
:100D30007B610E4A7B6913441B78DBB2BB607B6826
:100D4000DA68BB68B2FBF3F27B681A611C37BD46F8
:100D50005DF8047B704700BF0010024000127A006B
:100D60000024F40000093D000000002010000020D5
:100D700080B483B000AF78600B46FB70FB78002B2B
:100D800006D00949084B5A697B6813434B6106E05A
:100D90000549054B5A697B68DB4313404B610C37AF
:100DA000BD465DF8047B70470010024080B483B0FC
:100DB00000AF78600B46FB70FB78002B06D009492A
:100DC000084B9A697B6813438B6106E00549054B24
:100DD0009A697B68DB4313408B610C37BD465DF835
:100DE000047B70470010024080B483B000AF78608D
:100DF0000B46FB70FB78002B06D00949084BDA69DB
:100E00007B681343CB6106E00549054BDA697B68D3
:100E1000DB431340CB610C37BD465DF8047B704764
:100E20000010024080B483B000AF78600B46FB70C6
:100E3000FB78002B06D00949084BDA687B6813431E
:100E4000CB6006E00549054BDA687B68DB4313405D
:100E5000CB600C37BD465DF8047B70470010024044
:100E600080B483B000AF78600B46FB70FB78002B3A
:100E700006D00949084B1A697B6813430B6106E0E9
:100E80000549054B1A697B68DB4313400B610C373E
:100E9000BD465DF8047B70470010024080B483B00B
:100EA00000AF0346FB71044AFB7913600C37BD4663
:100EB0005DF8047B704700BF4004424280B483B0B9
:100EC00000AF0346FB71044AFB7913600C37BD4643
:100ED0005DF8047B704700BF4C00424280B483B091
:100EE00000AF0346FB71044AFB7913700C37BD4613
:100EF0005DF8047B704700BF0710024080B487B0E4
:100F000000AF0346FB710023FB6000237B610023DD
:100F1000FB74FB795B09DBB2FB60FB68012B03D13F
:100F2000124B1B687B6109E0FB68022B03D10F4B5E
:100F30001B6A7B6102E00D4B5B6A7B61FB7903F00E
:100F40001F03FB60FB687A6922FA03F303F00103D5
:100F5000002B02D00123FB7401E00023FB74FB7C17
:100F600018461C37BD465DF8047B704700100240F0
:100F700080B400AF044A044B5B6A43F08073536251
:100F8000BD465DF8047B70470010024080B485B018
:100F900000AF0346FB710023FB73094B9A68FB7992
:100FA0001340002B02D00123FB7301E00023FB73ED
:100FB000FB7B18461437BD465DF8047B704700BFC5
:100FC0000010024080B483B000AF0346FB71044AB6
:100FD000FB7913700C37BD465DF8047B704700BF8A
:100FE0000A10024080B483B000AF7860054A7B6885
:100FF00043F0BF6343F40033D3600C37BD465DF864
:10100000047B704700ED00E080B487B000AF7860EB
:1010100000237B6100233B610F23FB607B68DB784F
:10102000002B3AD0274BDB68DB4303F4E0631B0A59
:101030007B617B69C3F104033B617B69FA6822FA37
:1010400003F3FB607B685B781A463B6902FA03F3A3
:101050007B617B689B781A46FB6813407A6913436F
:101060007B617B691B017B61174A7B681B7879690F
:10107000C9B213440A4683F80023134A7B681B78DD
:101080005B09DBB218467B681B7803F01F03012164
:1010900001FA03F342F820300FE00B497B681B781C
:1010A0005B09DBB218467B681B7803F01F03012243
:1010B0009A4000F1200341F823201C37BD465DF81B
:1010C000047B704700ED00E000E100E080B483B0F5
:1010D00000AF7860396007493B6823F0604323F034
:1010E0007F037A6813438B600C37BD465DF8047B41
:1010F000704700BF00ED00E080B483B000AF03464E
:101100000A46FB711346BB71BB79002B06D0094917
:10111000084B1A69FB7913430B6106E00549054B3F
:101120001A69FB79DB4313400B610C37BD465DF850
:10113000047B704700ED00E080B483B000AF7860BE
:101140007B68042B06D1094A084B1B6843F0040353
:10115000136005E0054A054B1B6823F00403136088
:101160000C37BD465DF8047B704700BF10E000E01F
:10117000002103E00A4B5B584350043109480A4BF5
:1011800042189A42F6D3094A02E0002342F8043B8F
:10119000074B9A42F9D300F00FF800F02DFF70478B
:1011A0006821000800000020600400206004002086
:1011B0007C040020FEE7000080B500AF154A154B07
:1011C0001B6843F0010313601249124B5A68124B1B
:1011D00013404B600F4A0F4B1B6823F0847323F4BA
:1011E000803313600B4A0B4B1B6823F4802313607E
:1011F000084A084B5B6823F4FE035360054B4FF429
:101200001F029A6000F07CF8044B4FF000629A6075
:1012100080BD00BF001002400000FFF800ED00E0BC
:1012200080B485B000AF0023FB600023BB600023C7
:101230007B602D4B5B6803F00C03FB60FB68042BA9
:1012400007D0082B09D0002B34D1284B284A1A602C
:1012500034E0264B274A1A6030E0234B5B6803F4E6
:101260007013BB60204B5B6803F480337B60BB680A
:101270009B0C0233BB607B68002B06D1BB681E4A07
:1012800002FB03F3194A136013E0174B5B6803F486
:101290000033002B06D0BB68154A02FB03F3134A48
:1012A000136006E0BB68134A02FB03F30F4A1360A6
:1012B00004E003E00D4B0E4A1A6000BF0A4B5B6866
:1012C00003F0F0031B090D4AD35CDBB2FB60074B54
:1012D0001A68FB6822FA03F3044A13601437BD4608
:1012E0005DF8047B704700BF00100240140000202E
:1012F00000127A000024F40000093D0018000020CC
:1013000080B500AF00F002F880BD00BF80B483B0AC
:1013100000AF00237B6000233B603A4A394B1B68D7
:1013200043F480331360374B1B6803F400333B6096
:101330007B6801337B603B68002B03D17B68B3F58E
:10134000A06FF0D12F4B1B6803F40033002B02D0A9
:1013500001233B6001E000233B603B68012B4BD144
:10136000294A294B1B6843F010031360264A264B79
:101370001B6823F003031360234A234B1B6843F0CD
:10138000020313601F4A1F4B5B6853601D4A1D4BCD
:101390005B6853601B4A1B4B5B6843F4806353607C
:1013A000184A184B5B6823F47C135360154A154B9D
:1013B0005B6843F4F8135360124A124B1B6843F006
:1013C0008073136000BF0F4B1B6803F00073002B8A
:1013D000F9D00C4A0B4B5B6823F003035360094AB6
:1013E000084B5B6843F00203536000BF054B5B682A
:1013F00003F00C03082BF9D10C37BD465DF8047BD4
:10140000704700BF001002400020024080B483B04B
:1014100000AF0346FB71084997F907305B09FA7979
:1014200002F01F02012000FA02F241F823200C37DB
:10143000BD465DF8047B704700E100E080B586B0F2
:1014400000AF0323BB754FF48063BB820423FB759D
:1014500007F1140318481946FEF756FF4FF40073BE
:10146000BB821023FB7507F1140313481946FEF7DE
:101470004BFF1248012100F049FA4FF416537B60EC
:1014800000233B820C23FB810023BB8100237B8153
:1014900000233B813B1D0948194600F01FF907480E
:1014A00040F22551012200F051FA2520FFF7AEFF4E
:1014B0001837BD4680BD00BF00080140003801401C
:1014C00080B584B000AF424840F2255100F0B6FC30
:1014D0000346002B79D03F4A3E4BDB6883F0400344
:1014E000D3603B4A3A4B9B899BB223F020039BB2CB
:1014F0009381374B9B889BB2FB72FB7AFF2B5BD1AE
:1015000000BF334B1B889BB203F02003002BF8D0A5
:101510002F4B9B889BB2FB72FB7A002B00D042E0E2
:1015200000BF2B4B1B889BB203F02003002BF8D08D
:10153000274B9B889BB2FB72FB7A0A2B32D1264A3F
:10154000254BDB6883F48043D360244A3B46106814
:10155000516803C312891A800023FB600023FB60DB
:1015600011E000BF1A4B1B889BB203F08003002BD5
:10157000F8D017493A46FB6813441B789BB28B801E
:10158000FB680133FB60FB68092BEADD00BF104BF1
:101590001B889BB203F08003002BF8D00C4B0A226F
:1015A0009A80FFE700BF0A4A094B9B899BB243F030
:1015B00020039BB2938108E0054A054B9B899BB2AF
:1015C00043F020039BB2938100BF1037BD4680BD1E
:1015D00000380140000C0140001001405421000877
:1015E00080B500AF04200121FFF7E0FB08200121B6
:1015F000FFF7DCFB10200121FFF7D8FB20200121A1
:10160000FFF7D4FB4FF480400121FFF7CFFB01200F
:101610000121FFF7CBFB4FF400300121FFF7E4FB82
:1016200080BD00BF80B582B000AF78607B68264A7D
:1016300093420AD14FF480400121FFF7F3FB4FF4AE
:1016400080400021FFF7EEFB3AE07B681F4A93429F
:101650000AD14FF400300121FFF702FC4FF40030B3
:101660000021FFF7FDFB2BE07B68194A93420AD16A
:101670004FF480200121FFF7F3FB4FF4802000217D
:10168000FFF7EEFB1CE07B68124A93420AD14FF44D
:1016900000200121FFF7E4FB4FF400200021FFF7B9
:1016A000DFFB0DE07B680C4A934209D14FF48010B8
:1016B0000121FFF7D5FB4FF480100021FFF7D0FB8D
:1016C0000837BD4680BD00BF0038014000440040DF
:1016D00000480040004C00400050004080B58CB0F5
:1016E00000AF786039600023FB620023BB620023F7
:1016F0007B6200233B620023FB617B68FB617B68AC
:101700001B8A9BB2FB62FA6A4CF6FF731340FB62C2
:101710003B68DB881A46FB6A1343FB62FB6A9AB29A
:101720007B681A827B689B899BB2FB62FA6A4EF6E1
:10173000F3131340FB623B689A883B681B89134391
:101740009AB23B685B8913439BB21A46FB6A134308
:10175000FB62FB6A9AB27B689A817B689B8A9BB228
:10176000FB62FA6A4FF6FF431340FB623B689B89BA
:101770001A46FB6A1343FB62FB6A9AB27B689A8241
:1017800007F108031846FFF73FFAFB692E4A934218
:1017900002D17B69BB6201E03B69BB627B689B89CC
:1017A0009BB29BB21BB2002B0CDABA6A13469B00A9
:1017B00013449A001A443B681B685B00B2FBF3F3C6
:1017C0007B620BE0BA6A13469B0013449A001A44EA
:1017D0003B681B689B00B2FBF3F37B627B6A1B4A8E
:1017E000A2FB03235B091B01FB62FB6A1B0964224A
:1017F00002FB03F37A6AD31A3B627B689B899BB234
:101800009BB21BB2002B0CDA3B6ADB0032330F4A6F
:10181000A2FB03235B0903F00703FA6A1343FB628D
:101820000BE03B6A1B013233084AA2FB03235B092E
:1018300003F00F03FA6A1343FB62FB6A9AB27B68F8
:101840001A813037BD4680BD003801401F85EB51FD
:1018500080B483B000AF78607B684FF416521A6092
:101860007B6800229A807B680022DA807B680022F5
:101870001A817B680C225A817B6800229A810C377E
:10188000BD465DF8047B704780B485B000AF7860DA
:1018900039600023FB607B681B8A9BB2FB60FA689F
:1018A0004FF2FF031340FB603B681A883B685B887C
:1018B00013439AB23B689B8813439AB23B68DB8818
:1018C00013439BB21A46FB681343FB60FB689AB252
:1018D0007B681A821437BD465DF8047B704700BFF1
:1018E00080B483B000AF78607B6800221A807B6888
:1018F00000225A807B6800229A807B680022DA806E
:101900000C37BD465DF8047B704700BF80B483B0E0
:1019100000AF78600B46FB70FB78002B08D07B682B
:101920009B899BB243F400539AB27B689A8107E08B
:101930007B689B899BB223F400539AB27B689A819F
:101940000C37BD465DF8047B704700BF80B487B09C
:1019500000AF78600B467B8013467B7000233B61B1
:101960000023FB600023BB6000237B617B687B61FD
:101970007B88DBB25B09DBB23B617B8803F01F0332
:10198000FB60FB68012202FA03F3BB603B69012B99
:1019900003D17B690C337B6109E03B69022B03D1E6
:1019A0007B6910337B6102E07B6914337B617B7858
:1019B000002B06D07B697A691168BA680A431A60FD
:1019C00006E07B697A691168BA68D2430A401A60F6
:1019D0001C37BD465DF8047B704700BF80B483B000
:1019E00000AF78600B467B8013467B707B78002BC2
:1019F00008D07B689B8A9AB27B8813439AB27B6833
:101A00009A8209E07B689B8A9AB27B88DB439BB20F
:101A100013409AB27B689A820C37BD465DF8047B0E
:101A2000704700BF80B483B000AF78600B46FB7096
:101A30007B681B8A9BB223F00F039AB27B681A82E1
:101A40007B681B8A9AB2FB789BB213439AB27B687D
:101A50001A820C37BD465DF8047B704780B483B0B2
:101A600000AF78600B467B807B689B899BB223F438
:101A700000639AB27B689A817B689B899AB27B8863
:101A800013439AB27B689A810C37BD465DF8047B9C
:101A9000704700BF80B483B000AF78600B46FB7026
:101AA000FB78002B08D07B689B899BB243F0020334
:101AB0009AB27B689A8107E07B689B899BB223F08E
:101AC00002039AB27B689A810C37BD465DF8047BAD
:101AD000704700BF80B483B000AF78600B467B8056
:101AE0007B681B8A9BB223F020039AB27B681A8220
:101AF0007B681B8A9AB27B8813439AB27B681A82EE
:101B00000C37BD465DF8047B704700BF80B483B0DE
:101B100000AF78600B46FB70FB78002B08D07B6829
:101B20001B8A9BB243F480439AB27B681A8207E017
:101B30007B681B8A9BB223F480439AB27B681A822B
:101B40000C37BD465DF8047B704700BF80B483B09E
:101B500000AF78600B467B807B88C3F308039AB2A2
:101B60007B689A800C37BD465DF8047B704700BFE8
:101B700080B483B000AF78607B689B889BB2C3F36E
:101B800008039BB218460C37BD465DF8047B7047CE
:101B900080B483B000AF78607B689B899BB243F0D0
:101BA00001039AB27B689A810C37BD465DF8047BCD
:101BB000704700BF80B483B000AF78600B46FB7005
:101BC0007B681B8B9BB2DBB29AB27B681A837B6803
:101BD0001B8B9AB2FB789BB21B029BB213439AB247
:101BE0007B681A830C37BD465DF8047B704700BFE5
:101BF00080B483B000AF78600B46FB707B681B8BB2
:101C00009BB223F0FF039AB27B681A837B681B8B1D
:101C10009AB2FB789BB213439AB27B681A830C3753
:101C2000BD465DF8047B704780B483B000AF786038
:101C30000B46FB70FB78002B08D07B689B8A9BB21D
:101C400043F020039AB27B689A8207E07B689B8A04
:101C50009BB223F020039AB27B689A820C37BD4670
:101C60005DF8047B704700BF80B483B000AF78603C
:101C70000B46FB70FB78002B08D07B689B8A9BB2DD
:101C800043F010039AB27B689A8207E07B689B8AD4
:101C90009BB223F010039AB27B689A820C37BD4640
:101CA0005DF8047B704700BF80B483B000AF7860FC
:101CB0000B46FB70FB78002B08D07B689B8A9BB29D
:101CC00043F008039AB27B689A8207E07B689B8A9C
:101CD0009BB223F008039AB27B689A820C37BD4608
:101CE0005DF8047B704700BF80B483B000AF7860BC
:101CF0000B46FB70FB78002B0AD07B689B899BB25C
:101D00006FEA43436FEA53439AB27B689A8107E0D4
:101D10007B689B899BB2C3F30E039AB27B689A815E
:101D20000C37BD465DF8047B704700BF80B483B0BC
:101D300000AF78600B46FB70FB78002B08D07B6807
:101D40009B8A9BB243F400639AB27B689A8207E055
:101D50007B689B8A9BB223F400639AB27B689A8269
:101D60000C37BD465DF8047B704700BF80B483B07C
:101D700000AF78600B467B807B689B8A9BB223F028
:101D800004039AB27B689A827B689B8A9AB27B88AA
:101D900013439AB27B689A820C37BD465DF8047B88
:101DA000704700BF80B483B000AF78600B46FB7013
:101DB000FB78002B08D07B689B8A9BB243F0020320
:101DC0009AB27B689A8207E07B689B8A9BB223F079
:101DD00002039AB27B689A820C37BD465DF8047B99
:101DE000704700BF80B485B000AF78600B467B8041
:101DF0000023FB737B681B889AB27B8813409BB2DD
:101E0000002B02D00123FB7301E00023FB73FB7B5B
:101E100018461437BD465DF8047B704780B483B024
:101E200000AF78600B467B807B88DB439AB27B688F
:101E30001A800C37BD465DF8047B704780B487B0CC
:101E400000AF78600B467B800023FB6000237B6142
:101E50000023BB600023FB747B88DBB25B09DBB231
:101E6000BB607B8803F01F037B617B69012202FA60
:101E700003F37B61BB68012B07D17B689B899BB215
:101E80001A467B6913407B6111E0BB68022B07D1C6
:101E90007B681B8A9BB21A467B6913407B6106E014
:101EA0007B689B8A9BB21A467B6913407B617B8867
:101EB0001B0A9BB2FB60FB68012202FA03F3FB6082
:101EC0007B681B889BB21A46FB681340FB607B69EA
:101ED000002B05D0FB68002B02D00123FB7401E02E
:101EE0000023FB74FB7C18461C37BD465DF8047B61
:101EF000704700BF80B485B000AF78600B467B8030
:101F00000023FB810023BB817B881B0AFB81FB89AB
:101F1000012202FA03F3BB81BB89DB439AB27B68DF
:101F20001A801437BD465DF8047B704780B483B0D7
:101F300000AF03463960FB7197F90730002B0BDACD
:101F40000D49FB7903F00F03043B3A68D2B212014A
:101F5000D2B20B441A7609E0084997F907303A687B
:101F6000D2B21201D2B20B4483F800230C37BD4623
:101F70005DF8047B704700BF00ED00E000E100E089
:101F800080B582B000AF78607B68013BB3F1807FA1
:101F900001D301230FE00A4A7B68013B53604FF0F5
:101FA000FF300F21FFF7C2FF054B00229A60044B60
:101FB00007221A60002318460837BD4680BD00BFBF
:101FC00010E000E080B500AF0348FFF7D9FF6FF0E5
:101FD0000400FFF7B1F880BD4054890080B400AF21
:101FE000044A044BDB6883F08003D360BD465DF890
:101FF000047B7047000C014080B582B000AFFFF752
:10200000EFFAFEF7B1F8FFF7DDFFFFF717FA4FF42D
:102010004070FEF7E7FF25233B7101237B7100230E
:10202000BB710123FB713B1D1846FEF7EDFF00BF9E
:10203000054B1B889BB203F08003002BF8D0024BAA
:1020400061229A80F3E700BF00380140024B13B1D0
:10205000024800F005B87047000000006D2000083D
:10206000014600200246034600F016B838B5084B7A
:10207000084DED1AAC1018BFED1805D0013C55F80D
:10208000043D9847002CF9D1BDE8384000F05CB819
:10209000580400205C0400202DE9F047254C06463A
:1020A00025688846D5F8484192469946C4B3606889
:1020B0001F2817DC411C76B104EB8003C3F888A00D
:1020C000D4F88851012282401543022EC4F8885169
:1020D000C3F808911ED0831C6160002044F823805F
:1020E000BDE8F087144B03B34FF4C870AFF3008022
:1020F0000446D0B1D5F84831002784E88800384636
:10210000C5F848410121C4F88871C4F88C71002ECB
:10211000E1D0D1E7D4F88C311A43C4F88C21DAE746
:1021200005F5A674C5F84841C1E74FF0FF30BDE89A
:10213000F08700BF6421000800000000F8B500BF70
:10214000F8BC08BC9E467047F8B500BFF8BC08BC98
:102150009E46704754686520526561706572000044
:082160004300000028000020EC
:102168000000000001020304010203040607080935
:102178000204060800A24A04000000000000000053
:1021880001020304060708090000000014030020E8
:102198007C030020E4030020000000000000000091
:1021A8000000000000000000000000000000000027
:1021B800000000000000000000000000602100088E
:1021C8000000000000000000000000000000000007
:1021D80000000000000000000000000000000000F7
:1021E80000000000000000000000000000000000E7
:1021F80000000000000000000000000000000000D7
:1022080000000000000000000000000000000000C6
:1022180000000000000000000000000000000000B6
:1022280000000000000000000000000000000000A6
:1022380001000000000000000E33CDAB34126DE643
:10224800ECDE05000B0000000000000000000000AC
:102258000000000000000000000000000000000076
:102268000000000000000000000000000000000066
:102278000000000000000000000000000000000056
:102288000000000000000000000000000000000046
:1025B8004D200008310100080D010008000000004E
:0400000508000000EF
:00000001FF
