:020000040800F2
:1000000000500020B5110008F9110008F91100088E
:10001000F9110008F9110008F911000800000000AA
:10002000000000000000000000000000F9110008BE
:10003000F911000800000000F91100083141000822
:10004000F9110008F9110008F9110008F911000868
:10005000F9110008F9110008F9110008F911000858
:10006000F9110008F9110008F9110008F911000848
:10007000F9110008F9110008F9110008F911000838
:10008000F9110008F9110008F9110008F911000828
:10009000F9110008F9110008F9110008F911000818
:1000A000F9110008F9110008F9110008F911000808
:1000B0003D180008F9110008F9110008F9110008AD
:1000C000F9110008F9110008F9110008F9110008E8
:1000D000F91100081D1700082D170008F911000874
:1000E000F9110008F9110008F911000800000000DA
:1000F0000000000000000000000000000000000000
:1001000000000000000000005FF808F110B5054C89
:10011000237833B9044B13B10448AFF300800123B3
:10012000237010BD60040020000000008C42000815
:10013000084B10B51BB108480849AFF300800848C8
:10014000036803B910BD074B002BFBD0BDE810407E
:10015000184700BF000000008C4200086404002023
:100160005C0400200000000080B582B000AF1023C6
:10017000FB700223BB704FF4C8533B803B461F48C3
:10018000194600F0E3F8C0233B803B461C48194663
:1001900000F0DCF84FF463433B803B4619481946B6
:1001A00000F0D4F815484FF4C85100F0F3F91448A2
:1001B000C02100F0EFF913484FF4634100F0EAF971
:1001C00000237B6000237B6002E07B6801337B605F
:1001D0007B680D4A9342F8D908484FF4C85100F0A3
:1001E000E7F90748C02100F0E3F906484FF46341FE
:1001F00000F0DEF90837BD4680BD00BF00080140B1
:10020000000C014000100140FF083D0080B582B0A5
:1002100000AF4FF4407000F007FF1C233B71012337
:100220007B710023BB710123FB713B1D184600F05D
:100230000DFF27233B7002237B700023BB7001233B
:10024000FB703B46184600F001FF0837BD4680BDF5
:1002500080B582B000AF78607B682F4A934208D1A6
:100260000420012100F000FE0420002100F0FCFD2C
:100270004EE07B68294A934208D10820012100F012
:10028000F3FD0820002100F0EFFD41E07B68244AE7
:10029000934208D11020012100F0E6FD102000213A
:1002A00000F0E2FD34E07B681E4A934208D1202032
:1002B000012100F0D9FD2020002100F0D5FD27E02C
:1002C0007B68194A934208D14020012100F0CCFDFF
:1002D0004020002100F0C8FD1AE07B68134A9342D9
:1002E00008D18020012100F0BFFD8020002100F016
:1002F000BBFD0DE07B680E4A934209D14FF480703C
:10030000012100F0B1FD4FF48070002100F0ACFD40
:100310000837BD4680BD00BF00080140000C014009
:10032000001001400014014000180140001C014071
:100330000020014080B500AF0120012100F094FDB4
:100340000120002100F090FD80BD00BF80B489B085
:1003500000AF786039600023FB6100233B6100231C
:10036000BB610023FB6000237B610023BB603B6813
:10037000DB7803F00F03FB613B68DB7803F01003CD
:10038000002B05D03B689B781A46FB691343FB6141
:100390003B681B88DBB2002B44D07B681B687B6109
:1003A0000023BB6138E0BB69012202FA03F3FB6062
:1003B0003B681B881A46FB6813403B613A69FB683F
:1003C0009A4226D1BB699B00FB60FB680F2202FAB0
:1003D00003F3BB60BB68DB437A6913407B61FB6856
:1003E000FA6902FA03F37A6913437B613B68DB78AD
:1003F000282B05D1BB6901229A407B685A6108E02D
:100400003B68DB78482B04D1BB6901229A407B68AA
:100410001A61BB690133BB61BB69072BC3D97B6818
:100420007A691A603B681B88FF2B4AD97B685B6836
:100430007B610023BB613EE0BB6908331A460123A0
:100440009340FB603B681B881A46FB6813403B6186
:100450003A69FB689A422BD1BB699B00FB60FB6841
:100460000F2202FA03F3BB60BB68DB437A691340D7
:100470007B61FB68FA6902FA03F37A6913437B61D3
:100480003B68DB78282B07D1BB6908331A46012368
:1004900003FA02F27B685A613B68DB78482B07D18C
:1004A000BB6908331A46012303FA02F27B681A611A
:1004B000BB690133BB61BB69072BBDD97B687A6916
:1004C0005A602437BD465DF8047B704780B483B022
:1004D00000AF78607B684FF6FF721A807B6802225B
:1004E0009A707B680422DA700C37BD465DF8047B95
:1004F000704700BF80B485B000AF78600B467B804A
:100500000023FB737B689A687B881340002B02D022
:100510000123FB7301E00023FB73FB7B18461437B8
:10052000BD465DF8047B704780B483B000AF78604F
:100530007B689B689BB218460C37BD465DF8047B10
:10054000704700BF80B485B000AF78600B467B80F9
:100550000023FB737B68DA687B881340002B02D092
:100560000123FB7301E00023FB73FB7B1846143768
:10057000BD465DF8047B704780B483B000AF7860FF
:100580007B68DB689BB218460C37BD465DF8047B80
:10059000704700BF80B483B000AF78600B467B80AB
:1005A0007A887B681A610C37BD465DF8047B70471A
:1005B00080B483B000AF78600B467B807A887B681C
:1005C0005A610C37BD465DF8047B704780B483B038
:1005D00000AF78600B467B8013467B707B78002BE6
:1005E00003D07A887B681A6102E07A887B685A6156
:1005F0000C37BD465DF8047B704700BF80B483B004
:1006000000AF78600B467B807A887B68DA600C37B5
:10061000BD465DF8047B704780B485B000AF78605C
:100620000B467B804FF48033FB607B88FA68134372
:10063000FB607B68FA689A617A887B689A617B685C
:10064000FA689A617B689B69FB607B689B69FB60C9
:100650001437BD465DF8047B704700BF80B485B099
:1006600000AF03460A46FB711346BB710023FB60D3
:100670000C4B1B68FB60FA684FF680731340FB60FD
:10068000FB791B01FA681343FB60BB79FA681343DB
:10069000FB60044AFB6813601437BD465DF8047BB9
:1006A000704700BF0000014080B483B000AF034634
:1006B000FB71044AFB7913600C37BD465DF8047B7F
:1006C000704700BF1C00204280B487B000AF786044
:1006D0000B46FB7000233B610023FB6000237B6122
:1006E0000023BB607B68002B03DA2E4BDB697B6148
:1006F00002E02C4B5B687B617B6803F470231B0C6E
:10070000BB607B689BB23B617B6803F44013B3F52D
:10071000401F0AD17B6923F070637B61214A214B22
:100720005B6823F07063536021E07B6803F48013FF
:10073000002B0ED0BB68032202FA03F3FB60FB68B8
:10074000DB437A6913407B617B6943F070637B61B3
:100750000DE07B685B0D1B011A463B699340DB4350
:100760007A6913407B617B6943F070637B61FB783E
:10077000002B08D07B685B0D1B011A463B69934038
:100780007A6913437B617B68002B03DA054A7B6936
:10079000D36102E0034A7B6953601C37BD465DF8B4
:1007A000047B70470000014090B484B000AF034662
:1007B0000A46FB711346BB710023FB60BB7903F053
:1007C00003039B000F2202FA03F3FB601649BB7977
:1007D0009B08DBB21846144ABB799B08DBB2023394
:1007E00052F82320FB68DB431A40831C41F8232086
:1007F0000D48BB799B08DBB21C460B4ABB799B08B2
:10080000DBB2023352F82320F979BB7903F00303FA
:100810009B0001FA03F31A43A31C40F8232010376E
:10082000BD4690BC704700BF0000014080B483B05B
:1008300000AF7860034A7B6813600C37BD465DF8F3
:10084000047B7047DC00204280B400AF134A134B96
:100850001B6843F0010313601049104B5A68104B9A
:1008600013404B600D4A0D4B1B6823F0847323F437
:1008700080331360094A094B1B6823F480231360FB
:10088000064A064B5B6823F4FE035360034B4FF4A8
:100890001F029A60BD465DF8047B7047001002405D
:1008A0000000FFF880B483B000AF7860134A134BA8
:1008B0001B6823F480331360104A104B1B6823F429
:1008C000802313607B68B3F5803F03D0B3F5802F9E
:1008D00007D00DE0094A094B1B6843F480331360CD
:1008E00006E0064A054B1B6843F4A023136000BFD3
:1008F0000C37BD465DF8047B704700BF0010024016
:1009000080B582B000AF00233B600023FB71002361
:10091000BB71312000F014FB0346BB713B6801330F
:100920003B603B68B3F5A06F02D0BB79002BF0D0E1
:10093000312000F005FB0346002B02D00123FB71A0
:1009400001E00023FB71FB7918460837BD4680BDE6
:1009500080B485B000AF0346FB710023FB600A4BF7
:100960001B68FB60FB6823F0F803FB60FB79DB008E
:10097000FA681343FB60044AFB6813601437BD46F2
:100980005DF8047B704700BF0010024080B483B064
:1009900000AF0346FB71044AFB7913600C37BD4678
:1009A0005DF8047B704700BF0000424280B485B010
:1009B00000AF786039600023FB600A4B5B68FB6026
:1009C000FB6823F47C13FB607A683B681343FA6886
:1009D0001343FB60034AFB6853601437BD465DF860
:1009E000047B70470010024080B483B000AF034620
:1009F000FB71044AFB7913600C37BD465DF8047B3C
:100A0000704700BF6000424280B485B000AF78609C
:100A10000023FB60094B5B68FB60FB6823F003036A
:100A2000FB60FA687B681343FB60044AFB68536011
:100A30001437BD465DF8047B704700BF00100240CC
:100A400080B400AF054B5B68DBB203F00C03DBB294
:100A50001846BD465DF8047B704700BF0010024099
:100A600080B485B000AF78600023FB60094B5B6801
:100A7000FB60FB6823F0F003FB60FA687B681343BC
:100A8000FB60044AFB6853601437BD465DF8047B85
:100A9000704700BF0010024080B485B000AF78609E
:100AA0000023FB60094B5B68FB60FB6823F4E06399
:100AB000FB60FA687B681343FB60044AFB68536081
:100AC0001437BD465DF8047B704700BF001002403C
:100AD00080B485B000AF78600023FB60094B5B6891
:100AE000FB60FB6823F46053FB607B68DB00FA6803
:100AF0001343FB60034AFB6853601437BD465DF83F
:100B0000047B70470010024080B483B000AF0346FE
:100B10000A46FB711346BB71BB79002B08D00C4908
:100B20000B4B1B78DAB2FB791343DBB20B7009E095
:100B30000749074B1B78DAB2FB79DB43DBB2134082
:100B4000DBB20B700C37BD465DF8047B704700BF0D
:100B50000910024080B483B000AF7860034A7B681C
:100B600013600C37BD465DF8047B7047D8004242E5
:100B700080B485B000AF78600023FB60094B5B68F0
:100B8000FB60FB6823F44043FB60FA687B68134317
:100B9000FB60044AFB6853601437BD465DF8047B74
:100BA000704700BF0010024080B483B000AF03461E
:100BB000FB710C4B00221A700A4B00221A70FB7951
:100BC000012B02D0042B04D007E0064B01221A703F
:100BD00003E0044B05221A7000BF0C37BD465DF8D8
:100BE000047B70472010024080B483B000AF0346FE
:100BF000FB71044AFB7913600C37BD465DF8047B3A
:100C0000704700BF8004424280B483B000AF786078
:100C10000549054B1A6A7B6813430B620C37BD46C6
:100C20005DF8047B704700BF0010024080B483B0C1
:100C300000AF0346FB71044AFB7913600C37BD46D5
:100C40005DF8047B704700BF3C04424280B487B02B
:100C500000AF786000237B6100233B610023FB60D1
:100C60000023BB604D4B5B6803F00C037B617B6929
:100C7000042B07D0082B09D0002B34D17B68484ABD
:100C80001A6034E07B68474A1A6030E0434B5B6887
:100C900003F470133B61414B5B6803F48033FB60EA
:100CA0003B699B0C02333B61FB68002B06D13B691F
:100CB0003D4A02FB03F27B681A6013E0374B5B6826
:100CC00003F40033002B06D03B69354A02FB03F2E4
:100CD0007B681A6006E03B69324A02FB03F27B68DC
:100CE0001A6004E003E07B682D4A1A6000BF2B4BBA
:100CF0005B6803F0F0037B617B691B097B612B4A16
:100D00007B6913441B78DBB2BB607B681A68BB68E5
:100D1000DA407B685A60214B5B6803F4E0637B61D7
:100D20007B691B0A7B61214A7B6913441B78DBB218
:100D3000BB607B685A68BB68DA407B689A60174B77
:100D40005B6803F460537B617B69DB0A7B61174A54
:100D50007B6913441B78DBB2BB607B685A68BB6855
:100D6000DA407B68DA600D4B5B6803F440437B61DB
:100D70007B699B0B7B610E4A7B6913441B78DBB25A
:100D8000BB607B68DA68BB68B2FBF3F27B681A6110
:100D90001C37BD465DF8047B704700BF0010024061
:100DA00000127A000024F40000093D000000002039
:100DB0001000002080B483B000AF78600B46FB7059
:100DC000FB78002B06D00949084B5A697B6813430E
:100DD0004B6106E00549054B5A697B68DB431340CC
:100DE0004B610C37BD465DF8047B70470010024034
:100DF00080B483B000AF78600B46FB70FB78002BAB
:100E000006D00949084B9A697B6813438B6106E059
:100E10000549054B9A697B68DB4313408B610C37AE
:100E2000BD465DF8047B70470010024080B483B07B
:100E300000AF78600B46FB70FB78002B06D00949A9
:100E4000084BDA697B681343CB6106E00549054B23
:100E5000DA697B68DB431340CB610C37BD465DF834
:100E6000047B70470010024080B483B000AF78600C
:100E70000B46FB70FB78002B06D00949084BDA685B
:100E80007B681343CB6006E00549054BDA687B6855
:100E9000DB431340CB600C37BD465DF8047B7047E5
:100EA0000010024080B483B000AF78600B46FB7046
:100EB000FB78002B06D00949084B1A697B6813435D
:100EC0000B6106E00549054B1A697B68DB4313405B
:100ED0000B610C37BD465DF8047B70470010024083
:100EE00080B483B000AF0346FB71044AFB79136002
:100EF0000C37BD465DF8047B704700BF400442429A
:100F000080B483B000AF0346FB71044AFB791360E1
:100F10000C37BD465DF8047B704700BF4C00424271
:100F200080B483B000AF0346FB71044AFB791370B1
:100F30000C37BD465DF8047B704700BF07100240C8
:100F400080B487B000AF0346FB710023FB60002331
:100F50007B610023FB74FB795B09DBB2FB60FB6800
:100F6000012B03D1124B1B687B6109E0FB68022B4C
:100F700003D10F4B1B6A7B6102E00D4B5B6A7B6107
:100F8000FB7903F01F03FB60FB687A6922FA03F325
:100F900003F00103002B02D00123FB7401E00023C6
:100FA000FB74FB7C18461C37BD465DF8047B70471C
:100FB0000010024080B400AF044A044B5B6A43F067
:100FC00080735362BD465DF8047B70470010024099
:100FD00080B485B000AF0346FB710023FB73094B5F
:100FE0009A68FB791340002B02D00123FB7301E0C8
:100FF0000023FB73FB7B18461437BD465DF8047B6A
:10100000704700BF0010024080B483B000AF0346B9
:10101000FB71044AFB7913700C37BD465DF8047B05
:10102000704700BF0A10024080B483B000AF786000
:10103000054A7B6843F0BF6343F40033D3600C3749
:10104000BD465DF8047B704700ED00E080B487B0DA
:1010500000AF786000237B6100233B610F23FB60BE
:101060007B68DB78002B3AD0274BDB68DB4303F44B
:10107000E0631B0A7B617B69C3F104033B617B690D
:10108000FA6822FA03F3FB607B685B781A463B69D7
:1010900002FA03F37B617B689B781A46FB68134076
:1010A0007A6913437B617B691B017B61174A7B680B
:1010B0001B787969C9B213440A4683F80023134A9E
:1010C0007B681B785B09DBB218467B681B7803F0F2
:1010D0001F03012101FA03F342F820300FE00B490E
:1010E0007B681B785B09DBB218467B681B7803F0D2
:1010F0001F0301229A4000F1200341F823201C37EE
:10110000BD465DF8047B704700ED00E000E100E0C3
:1011100080B483B000AF7860396007493B6823F042
:10112000604323F07F037A6813438B600C37BD461E
:101130005DF8047B704700BF00ED00E080B483B031
:1011400000AF03460A46FB711346BB71BB79002B07
:1011500006D00949084B1A69FB7913430B6106E075
:101160000549054B1A69FB79DB4313400B610C37CA
:10117000BD465DF8047B704700ED00E080B483B0AD
:1011800000AF78607B68042B06D1094A084B1B68C6
:1011900043F00403136005E0054A054B1B6823F088
:1011A000040313600C37BD465DF8047B704700BF35
:1011B00010E000E0002103E00A4B5B58435004318B
:1011C00009480A4B42189A42F6D3094A02E0002322
:1011D00042F8043B074B9A42F9D300F00FF802F0B3
:1011E000B5FF70478C42000800000020600400201A
:1011F0006004002080040020FEE7000080B500AFFE
:10120000154A154B1B6843F0010313601249124B3A
:101210005A68124B13404B600F4A0F4B1B6823F068
:10122000847323F4803313600B4A0B4B1B6823F445
:1012300080231360084A084B5B6823F4FE03536065
:10124000054B4FF41F029A6000F07CF8044B4FF0FE
:1012500000629A6080BD00BF001002400000FFF8ED
:1012600000ED00E080B485B000AF0023FB600023F8
:10127000BB6000237B602D4B5B6803F00C03FB60BD
:10128000FB68042B07D0082B09D0002B34D1284B46
:10129000284A1A6034E0264B274A1A6030E0234B74
:1012A0005B6803F47013BB60204B5B6803F480330E
:1012B0007B60BB689B0C0233BB607B68002B06D154
:1012C000BB681E4A02FB03F3194A136013E0174B75
:1012D0005B6803F40033002B06D0BB68154A02FBA1
:1012E00003F3134A136006E0BB68134A02FB03F3DF
:1012F0000F4A136004E003E00D4B0E4A1A6000BF72
:101300000A4B5B6803F0F0031B090D4AD35CDBB2A8
:10131000FB60074B1A68FB6822FA03F3044A136068
:101320001437BD465DF8047B704700BF00100240D3
:101330001400002000127A000024F40000093D008F
:101340001800002080B500AF00F002F880BD00BF9B
:1013500080B483B000AF00237B6000233B603A4A37
:10136000394B1B6843F480331360374B1B6803F41D
:1013700000333B607B6801337B603B68002B03D10B
:101380007B68B3F5A06FF0D12F4B1B6803F40033DB
:10139000002B02D001233B6001E000233B603B684F
:1013A000012B4BD1294A294B1B6843F010031360D2
:1013B000264A264B1B6823F003031360234A234B62
:1013C0001B6843F0020313601F4A1F4B5B685360A6
:1013D0001D4A1D4B5B6853601B4A1B4B5B6843F403
:1013E00080635360184A184B5B6823F47C13536086
:1013F000154A154B5B6843F4F8135360124A124BBD
:101400001B6843F08073136000BF0F4B1B6803F031
:101410000073002BF9D00C4A0B4B5B6823F00303DD
:101420005360094A084B5B6843F00203536000BFF6
:10143000054B5B6803F00C03082BF9D10C37BD4654
:101440005DF8047B704700BF00100240002002409E
:1014500080B483B000AF0346FB71084997F90730A9
:101460005B09FA7902F01F02012000FA02F241F84A
:1014700023200C37BD465DF8047B704700E100E097
:1014800080B586B000AF0323BB754FF48063BB8289
:101490000423FB7507F114032B481946FEF756FF8A
:1014A0004FF40073BB821823FB7507F11403264821
:1014B0001946FEF74BFF0823BB820423FB7507F197
:1014C000140321481946FEF741FF0423BB82182369
:1014D000FB7507F114031C481946FEF737FF1B483C
:1014E000012102F0BDFA4FF416537B6000233B82CA
:1014F0000C23FB810023BB8100237B8100233B81E4
:101500003B1D1248194602F093F9104840F225514C
:10151000012202F0C5FA2520FFF79AFF0C480121AD
:1015200002F09EFA3B1D0A48194602F081F908486C
:1015300040F22551012202F0B3FA2620FFF788FF7E
:101540001837BD4680BD00BF00080140003801408B
:101550000044004080B483B000AF786000BF7B6877
:101560001B889BB203F08003002BF8D07B680A2213
:101570009A800C37BD465DF8047B704780B586B015
:1015800000AF7860786840F2255102F001FD034613
:10159000002B00F0BC805F4A5E4BDB6883F04003A9
:1015A000D3607B689B899BB223F020039AB27B684F
:1015B0009A817B689B889BB2FB74FB7CFF2B40F07D
:1015C0009D8000BF7B681B889BB203F02003002B2B
:1015D000F8D07B689B889BB2FB74FB7C002B06D009
:1015E000002BC0F28180103B012B7DD836E000BF7C
:1015F0007B681B889BB203F02003002BF8D07B682C
:101600009B889BB2FB74FB7C0A2B26D1424A07F1D4
:1016100008031068516803C312891A8000237B6194
:1016200000237B6112E000BF7B681B889BB203F044
:101630008003002BF8D007F108027B6913441B7864
:101640009AB27B689A807B6901337B617B69092B45
:10165000E9DD7868FFF77EFF47E046E000BF7B6882
:101660001B889BB203F02003002BF8D07B689B887B
:101670009BB2FB74FB7C202B35D100BF7B681B88A1
:101680009BB203F02003002BF8D07B689B889BB2B1
:10169000FB7400BF7B681B889BB203F02003002B08
:1016A000F8D07B689B889BB20A2B1CD1FB7C5BB279
:1016B000002B06DA174A174BDB6843F01003D360A0
:1016C00005E0144A134BDB6823F01003D360FB7C66
:1016D00003F07F03FB744FF08042FB7C9BB25B0006
:1016E0009BB2938601E000E000BF7B689B899BB2C0
:1016F00043F020039AB27B689A8108E07B689B895B
:101700009BB243F020039AB27B689A8100BF1837DE
:10171000BD4680BD000C01407842000880B500AF96
:101720000148FFF72BFF80BD0038014080B500AFB6
:101730000148FFF723FF80BD0044004080B582B020
:1017400000AF1823FB710323BB710123BB803B1D3A
:1017500029481946FEF7FAFD0223BB803B1D2648A7
:101760001946FEF7F3FD4FF080424FF080431B888F
:101770009BB223F47F7323F003039BB213804FF0DB
:1017800080424FF080431B889BB243F005039BB21D
:1017900013804FF0804340F219121A854FF08043B6
:1017A000FF229A854FF080424FF080431B8B9BB203
:1017B00043F4E04343F070039BB213834FF0804245
:1017C0004FF080431B8C9BB243F023039BB21384E6
:1017D0004FF080424FF080439B899BB243F001035E
:1017E0009BB293814FF080400121012200F0BAFDAD
:1017F0000837BD4680BD00BF0008014080B582B0FB
:1018000000AF0C480121FEF75FFF1023FB7102239C
:10181000BB711023BB803B1D07481946FEF796FDA0
:10182000054A054BDB6823F01003D3600837BD463B
:1018300080BD00BF00013000000C014080B400AF4B
:101840004FF080431B8A9BB203F00103002B5BD057
:101850004FF080424FF080431B8A9BB223F001037C
:101860009BB213822A4B1B78DAB22A4BA3FB0213DA
:1018700019090B469B000B449B00D31ADBB2002BCB
:101880000FD1254A244B1B6823F0C0031360224A62
:10189000214BDB6843F00203D3601D4B00221A701A
:1018A0002BE01B4B1B78DAB21A4BA3FB021319096E
:1018B0000B469B000B449B00D31ADBB2012B10D1CB
:1018C000154A154B1B6843F0800313604FF08042AC
:1018D0004FF080431B8C9BB243F010039BB21384E8
:1018E0000BE00D4A0C4B1B6823F0C00313600A4A3F
:1018F000094BDB6823F00203D360054B1B78DBB296
:101900000133DAB2024B1A70BD465DF8047B7047B2
:101910007C040020CDCCCCCC0008014080B582B046
:1019200000AF78607B68784A93420AD14FF4006038
:101930000121FFF799FA4FF400600021FFF794FAB4
:10194000DEE07B68B3F1804F08D101200121FFF771
:10195000A9FA01200021FFF7A5FAD1E07B686B4AC4
:10196000934208D102200121FFF79CFA02200021B6
:10197000FFF798FAC4E07B68654A934208D10420D7
:101980000121FFF78FFA04200021FFF78BFAB7E05F
:101990007B68604A934208D108200121FFF782FA50
:1019A00008200021FFF77EFAAAE07B685A4A93429A
:1019B00008D110200121FFF775FA10200021FFF750
:1019C00071FA9DE07B68554A934208D1202001219D
:1019D000FFF768FA20200021FFF764FA90E07B68A7
:1019E0004F4A93420AD14FF400500121FFF73CFACD
:1019F0004FF400500021FFF737FA81E07B68494A35
:101A000093420AD14FF400200121FFF72DFA4FF441
:101A100000200021FFF728FA72E07B68424A9342D7
:101A20000AD14FF480100121FFF71EFA4FF4801005
:101A30000021FFF719FA63E07B683C4A93420AD120
:101A40004FF400100121FFF70FFA4FF400100021AE
:101A5000FFF70AFA54E07B68354A934208D14020E8
:101A60000121FFF71FFA40200021FFF71BFA47E092
:101A70007B68304A934208D180200121FFF712FA97
:101A800080200021FFF70EFA3AE07B682A4A934251
:101A90000AD14FF480700121FFF704FA4FF48070EF
:101AA0000021FFF7FFF92BE07B68244A93420AD11B
:101AB0004FF480300121FFF7D7F94FF48030002137
:101AC000FFF7D2F91CE07B681D4A93420AD14FF41C
:101AD00000300121FFF7C8F94FF400300021FFF773
:101AE000C3F90DE07B68174A934209D14FF4802077
:101AF0000121FFF7B9F94FF480200021FFF7B4F975
:101B00000837BD4680BD00BF002C014000040040E6
:101B100000080040000C004000100040001400408D
:101B200000340140004C014000500140005401408D
:101B300000180040001C0040002000400040014010
:101B4000004401400048014080B485B000AF786097
:101B500039600023FB817B681B88FB817B682E4AF0
:101B6000934213D07B682D4A93420FD07B68B3F128
:101B7000804F0BD07B682A4A934207D07B68294A62
:101B8000934203D07B68284A934208D1FB8923F013
:101B90007003FB813B685A88FB891343FB817B6898
:101BA000224A93420CD07B68214A934208D0FB8999
:101BB00023F44073FB813B68DA88FB891343FB8184
:101BC0007B68FA891A803B689A887B689A853B68AB
:101BD0001A887B681A857B680F4A93420FD07B680E
:101BE0000E4A93420BD07B68124A934207D07B681F
:101BF000114A934203D07B68104A934204D13B6858
:101C00001B7A9AB27B681A867B6801229A82143703
:101C1000BD465DF8047B7047002C01400034014054
:101C20000004004000080040000C0040001000408C
:101C300000140040004001400044014000480140C1
:101C400080B485B000AF7860396000237B810023C9
:101C5000FB810023BB817B681B8C9BB223F00103BB
:101C60009AB27B681A847B681B8CFB817B689B889B
:101C7000BB817B681B8B7B817B8923F070037B811D
:101C80007B8923F003037B813B681A887B8913439C
:101C90007B81FB8923F00203FB813B681A89FB8966
:101CA0001343FB813B685A88FB891343FB817B68A4
:101CB000244A93420FD07B68234A93420BD07B681F
:101CC000224A934207D07B68214A934203D07B6823
:101CD000204A934223D1FB8923F00803FB813B6810
:101CE0005A89FB891343FB81FB8923F00403FB81A1
:101CF0003B689A88FB891343FB81BB8923F480737B
:101D0000BB81BB8923F40073BB813B689A89BB8983
:101D10001343BB813B68DA89BB891343BB817B6872
:101D2000BA899A807B687A891A833B68DA887B68EB
:101D30009A867B68FA891A841437BD465DF8047B5D
:101D4000704700BF002C01400034014000400140BA
:101D5000004401400048014080B485B000AF786085
:101D6000396000237B810023FB810023BB817B68DA
:101D70001B8C9BB223F010039AB27B681A847B6899
:101D80001B8CFB817B689B88BB817B681B8B7B8169
:101D90007B8923F4E0437B817B8923F440737B813F
:101DA0003B681B881B029AB27B8913437B81FB89AA
:101DB00023F02003FB813B681B891B019AB2FB893E
:101DC0001343FB813B685B881B019AB2FB89134379
:101DD000FB817B68224A934203D07B68214A93426D
:101DE0002BD1FB8923F08003FB813B685B891B01BE
:101DF0009AB2FB891343FB81FB8923F04003FB81EB
:101E00003B689B881B019AB2FB891343FB81BB890A
:101E100023F48063BB81BB8923F40063BB813B68EF
:101E20009B899B009AB2BB891343BB813B68DB89CA
:101E30009B009AB2BB891343BB817B68BA899A80A5
:101E40007B687A891A833B68DA887B681A877B68A3
:101E5000FA891A841437BD465DF8047B704700BFC9
:101E6000002C01400034014080B485B000AF7860A0
:101E7000396000237B810023FB810023BB817B68C9
:101E80001B8C9BB223F480739AB27B681A847B68A4
:101E90001B8CFB817B689B88BB817B689B8B7B81D8
:101EA0007B8923F070037B817B8923F003037B8193
:101EB0003B681A887B8913437B81FB8923F4007379
:101EC000FB813B681B891B029AB2FB891343FB8190
:101ED0003B685B881B029AB2FB891343FB817B68DA
:101EE000224A934203D07B68214A93422BD1FB893B
:101EF00023F40063FB813B685B891B029AB2FB8978
:101F00001343FB81FB8923F48063FB813B689B883F
:101F10001B029AB2FB891343FB81BB8923F48053D4
:101F2000BB81BB8923F40053BB813B689B891B01A8
:101F30009AB2BB891343BB813B68DB891B019AB210
:101F4000BB891343BB817B68BA899A807B687A8995
:101F50009A833B68DA887B689A877B68FA891A8457
:101F60001437BD465DF8047B704700BF002C01406C
:101F70000034014080B485B000AF78603960002340
:101F8000BB8100237B810023FB817B681B8C9BB280
:101F900023F480539AB27B681A847B681B8C7B8104
:101FA0007B689B88FB817B689B8BBB81BB8923F40F
:101FB000E043BB81BB8923F44073BB813B681B8832
:101FC0001B029AB2BB891343BB817B8923F4005364
:101FD0007B813B681B891B039AB27B8913437B81FE
:101FE0003B685B881B039AB27B8913437B817B68C8
:101FF000124A934203D07B68114A93420AD1FB896B
:1020000023F48043FB813B689B899B019AB2FB8947
:102010001343FB817B68FA899A807B68BA899A832B
:102020003B68DA887B68A3F840207B687A891A8449
:102030001437BD465DF8047B704700BF002C01409B
:102040000034014080B582B000AF786039603B68F1
:102050001B88002B0FD13B6859883B689A883B68E6
:102060001B89786801F086F93B68DB887868194637
:1020700001F036F836E03B681B88042B0FD13B6833
:1020800059883B689A883B681B89786801F0E2F9B7
:102090003B68DB887868194601F03EF822E03B682F
:1020A0001B88082B0FD13B6859883B689A883B688E
:1020B0001B89786801F048FA3B68DB887868194624
:1020C00001F048F80EE03B6859883B689A883B6805
:1020D0001B89786801F0AEFA3B68DB88786819469E
:1020E00001F054F80837BD4680BD00BF80B584B00C
:1020F00000AF786039600023FB810123BB813B681E
:102100005B88002B02D10223FB8101E00023FB81CD
:102110003B689B88012B02D10223BB8101E0012394
:10212000BB813B681B88002B1CD13B6859883B68EE
:102130009A883B681B89786801F01CF93B68DB884A
:102140007868194600F0CCFF3B681B89F989BA8989
:10215000786801F07FF93B68DB887868194600F001
:10216000DBFF1BE03B6859883B689A883B681B890A
:10217000786801F06FF93B68DB887868194600F0F1
:10218000CBFF3B681B89F989BA89786801F0F2F8BE
:102190003B68DB887868194600F0A2FF1037BD461F
:1021A00080BD00BF80B483B000AF786039603B6809
:1021B0001A883B685B8813439AB23B689B88134339
:1021C0009AB23B68DB8813439AB23B681B8913437E
:1021D0009AB23B685B8913439AB23B689B8913436D
:1021E0009AB27B68A3F844200C37BD465DF8047BA7
:1021F000704700BF80B483B000AF78607B684FF653
:10220000FF729A807B6800221A807B680022DA8045
:102210007B6800225A807B6800221A720C37BD4608
:102220005DF8047B704700BF80B483B000AF786076
:102230007B6800221A807B6800225A807B6800221B
:102240009A807B680022DA807B6800221A817B6892
:1022500000225A817B6800229A817B680022DA8101
:102260000C37BD465DF8047B704700BF80B483B077
:1022700000AF78607B6800221A807B6800225A8059
:102280007B6801229A807B680022DA807B680022CA
:102290001A810C37BD465DF8047B704780B483B06B
:1022A00000AF78607B6800221A807B6800225A8029
:1022B0007B6800229A807B680022DA807B6800229B
:1022C0001A817B6800225A817B6800229A810C3730
:1022D000BD465DF8047B704780B483B000AF786082
:1022E0000B46FB70FB78002B08D07B681B889BB2E9
:1022F00043F001039AB27B681A8007E07B681B8871
:102300009BB223F001039AB27B681A800C37BD465A
:102310005DF8047B704700BF80B483B000AF786085
:102320000B46FB70FB78002B0CD07B68B3F8443075
:102330009BB26FEA43436FEA53439AB27B68A3F8B8
:10234000442009E07B68B3F844309BB2C3F30E032A
:102350009AB27B68A3F844200C37BD465DF8047B35
:10236000704700BF80B483B000AF78600B467B80BD
:1023700013467B707B78002B08D07B689B899AB2D0
:102380007B8813439AB27B689A8109E07B689B89BA
:102390009AB27B88DB439BB213409AB27B689A81E6
:1023A0000C37BD465DF8047B704700BF80B483B036
:1023B00000AF78600B467B807B687A889A820C3706
:1023C000BD465DF8047B704780B483B000AF786091
:1023D0000B467B8013463B807A883B8813439AB236
:1023E0007B68A3F848200C37BD465DF8047B704736
:1023F00080B483B000AF78600B467B8013467B705F
:102400007B78002B08D07B689B899AB27B8813432A
:102410009AB27B689A8109E07B689B899AB27B8833
:10242000DB439BB213409AB27B689A810C37BD465E
:102430005DF8047B704700BF80B483B000AF786064
:102440007B681B899BB223F007039AB27B681A81D1
:102450000C37BD465DF8047B704700BF80B582B085
:1024600000AF78600B467B807B887868194600F067
:10247000E1F87B681B899BB243F007039AB27B6843
:102480001A810837BD4680BD80B584B000AFF860C2
:10249000084611461A4603467B810B463B8113468C
:1024A000FB807B89602B07D13A89FB88F86811464D
:1024B000012200F0CFFF06E03A89FB88F868114658
:1024C000012200F057FF7B89F868194600F0B2F846
:1024D000FB681B899BB243F007039AB2FB681A8121
:1024E0001037BD4680BD00BF80B586B000AFF86034
:1024F000084611461A4603467B810B463B8113462C
:10250000FB800023FB8279893A89FB88F86800F018
:1025100037F8FB681B89FB82FB8A23F00703FB82E9
:10252000FB8A43F00703FB82FB8A23F07003FB82E4
:10253000FB8A43F07003FB82FB68FA8A1A81183722
:10254000BD4680BD80B584B000AFF8600846114636
:102550001A4603467B810B463B811346FB807989F3
:102560003A89FB88F86800F00BF8FB681B899BB27E
:1025700043F480439AB2FB681A811037BD4680BD90
:1025800080B487B000AFF860084611461A4603468B
:102590007B810B463B811346FB800023FB82FB685B
:1025A0001B89FB82FB8ADBB2FB82FB881B029AB28F
:1025B0003B8913439AB27B8913439AB2FB8A134334
:1025C000FB82FB68FA8A1A811C37BD465DF8047BE2
:1025D000704700BF80B483B000AF78600B467B804B
:1025E00013463B807B687A881A857B683A889A8292
:1025F0000C37BD465DF8047B704700BF80B485B0E2
:1026000000AF78600B467B800023FB817B681B88D2
:10261000FB81FB8923F07003FB81FA897B881343DC
:10262000FB817B68FA891A801437BD465DF8047B0C
:10263000704700BF80B485B000AF78600B467B80E8
:102640000023FB817B681B89FB81FB8923F07003DE
:10265000FB81FA897B881343FB817B68FA891A81A5
:102660001437BD465DF8047B704700BF80B487B067
:1026700000AFF860084611461A4603467B810B46B8
:102680003B811346FB800023FB820023BB82002397
:102690007B82FB681B89FB82FB681B8BBB82FB6810
:1026A0001B8C7B82FB8A23F00703FB82FA8A7B89DF
:1026B0001343FB82BB8A23F4407323F00303BB82E2
:1026C000BB8A43F4807343F00103BB827B8A23F00F
:1026D00022037B82FB881B019AB23B8913439AB287
:1026E0007B8A13437B82FB68FA8A1A81FB68BA8A69
:1026F0001A83FB687A8A1A841C37BD465DF8047B0E
:10270000704700BF80B485B000AF78600B467B8017
:102710000023FB817B681B8BFB81FB8923F070030B
:10272000FB81FA897B881343FB817B68FA891A83D2
:102730001437BD465DF8047B704700BF80B485B098
:1027400000AF78600B467B800023FB817B681B8B8E
:10275000FB81FB8923F4E043FB817B881B029AB257
:10276000FB891343FB817B68FA891A831437BD46C2
:102770005DF8047B704700BF80B485B000AF78601F
:102780000B467B800023FB817B689B8BFB81FB8955
:1027900023F07003FB81FA897B881343FB817B68FC
:1027A000FA899A831437BD465DF8047B704700BFF1
:1027B00080B485B000AF78600B467B800023FB813E
:1027C0007B689B8BFB81FB8923F4E043FB817B8847
:1027D0001B029AB2FB891343FB817B68FA899A83B7
:1027E0001437BD465DF8047B704700BF80B483B0EA
:1027F00000AF78600B46FB70FB78002B08D07B683D
:102800001B889BB243F080039AB27B681A8007E072
:102810007B681B889BB223F080039AB27B681A8086
:102820000C37BD465DF8047B704700BF80B483B0B1
:1028300000AF78600B46FB70FB78002B08D07B68FC
:102840009B889BB243F004039AB27B689A8007E0AE
:102850007B689B889BB223F004039AB27B689A80C2
:102860000C37BD465DF8047B704700BF80B483B071
:1028700000AF78600B46FB70FB78002B08D07B68BC
:102880009B889BB243F008039AB27B689A8007E06A
:102890007B689B889BB223F008039AB27B689A807E
:1028A0000C37BD465DF8047B704700BF80B483B031
:1028B00000AF78600B46FB70FB78002B08D07B687C
:1028C0009B889BB243F001039AB27B689A8007E031
:1028D0007B689B889BB223F001039AB27B689A8045
:1028E0000C37BD465DF8047B704700BF80B485B0EF
:1028F00000AF78600B467B800023FB817B681B8BDD
:10290000FB81FB8923F00803FB81FA897B88134351
:10291000FB817B68FA891A831437BD465DF8047B16
:10292000704700BF80B485B000AF78600B467B80F5
:102930000023FB817B681B8BFB81FB8923F40063F5
:10294000FB817B881B029AB2FB891343FB817B6866
:10295000FA891A831437BD465DF8047B704700BFBF
:1029600080B485B000AF78600B467B800023FB818C
:102970007B689B8BFB81FB8923F00803FB81FA8931
:102980007B881343FB817B68FA899A831437BD46A1
:102990005DF8047B704700BF80B485B000AF7860FD
:1029A0000B467B800023FB817B689B8BFB81FB8933
:1029B00023F40063FB817B881B029AB2FB891343DB
:1029C000FB817B68FA899A831437BD465DF8047BE6
:1029D000704700BF80B485B000AF78600B467B8045
:1029E0000023FB817B681B8BFB81FB8923F00403A5
:1029F000FB81FA897B881343FB817B68FA891A8300
:102A00001437BD465DF8047B704700BF80B485B0C5
:102A100000AF78600B467B800023FB817B681B8BBB
:102A2000FB81FB8923F48063FB817B881B029AB2C4
:102A3000FB891343FB817B68FA891A831437BD46EF
:102A40005DF8047B704700BF80B485B000AF78604C
:102A50000B467B800023FB817B689B8BFB81FB8982
:102A600023F00403FB81FA897B881343FB817B6895
:102A7000FA899A831437BD465DF8047B704700BF1E
:102A800080B485B000AF78600B467B800023FB816B
:102A90007B689B8BFB81FB8923F48063FB817B88B4
:102AA0001B029AB2FB891343FB817B68FA899A83E4
:102AB0001437BD465DF8047B704700BF80B485B015
:102AC00000AF78600B467B800023FB817B681B8B0B
:102AD000FB81FB8923F08003FB81FA897B88134308
:102AE000FB817B68FA891A831437BD465DF8047B45
:102AF000704700BF80B485B000AF78600B467B8024
:102B00000023FB817B681B8BFB81FB89C3F30E03D6
:102B1000FB817B881B029AB2FB891343FB817B6894
:102B2000FA891A831437BD465DF8047B704700BFED
:102B300080B485B000AF78600B467B800023FB81BA
:102B40007B689B8BFB81FB8923F08003FB81FA89E7
:102B50007B881343FB817B68FA899A831437BD46CF
:102B60005DF8047B704700BF80B485B000AF78602B
:102B70000B467B800023FB817B689B8BFB81FB8961
:102B8000C3F30E03FB817B881B029AB2FB891343BC
:102B9000FB817B68FA899A831437BD465DF8047B14
:102BA000704700BF80B485B000AF78600B467B8073
:102BB0000023FB817B681B8CFB81FB8923F00203D4
:102BC000FB81FA897B881343FB817B68FA891A842D
:102BD0001437BD465DF8047B704700BF80B485B0F4
:102BE00000AF78600B467B800023FB817B681B8CE9
:102BF000FB81FB8923F00803FB81FA897B8813435F
:102C0000FB817B68FA891A841437BD465DF8047B22
:102C1000704700BF80B485B000AF78600B467B8002
:102C20000023FB817B681B8CFB81FB8923F0200345
:102C3000FB817B881B019AB2FB891343FB817B6874
:102C4000FA891A841437BD465DF8047B704700BFCB
:102C500080B485B000AF78600B467B800023FB8199
:102C60007B681B8CFB81FB8923F08003FB817B88C5
:102C70001B019AB2FB891343FB817B68FA891A8492
:102C80001437BD465DF8047B704700BF80B485B043
:102C900000AF78600B467B800023FB817B681B8C38
:102CA000FB81FB8923F40073FB817B881B029AB2B2
:102CB000FB891343FB817B68FA891A841437BD466C
:102CC0005DF8047B704700BF80B485B000AF7860CA
:102CD0000B467B800023FB817B681B8CFB81FB897F
:102CE00023F40063FB817B881B029AB2FB891343A8
:102CF000FB817B68FA891A841437BD465DF8047B32
:102D0000704700BF80B485B000AF78600B467B8011
:102D10000023FB817B681B8CFB81FB8923F4005320
:102D2000FB817B881B039AB2FB891343FB817B6881
:102D3000FA891A841437BD465DF8047B704700BFDA
:102D400080B485B000AF78600B467B8013463B8033
:102D50000023FB817B88012202FA03F3FB817B685D
:102D60001B8C9AB2FB89DB439BB213409AB27B68FF
:102D70001A847B681B8C9AB239887B8801FA03F32A
:102D80009BB213439AB27B681A841437BD465DF830
:102D9000047B704780B485B000AF78600B467B80C1
:102DA00013463B800023FB817B88042202FA03F355
:102DB000FB817B681B8C9AB2FB89DB439BB213407F
:102DC0009AB27B681A847B681B8C9AB239887B889C
:102DD00001FA03F39BB213439AB27B681A84143747
:102DE000BD465DF8047B704780B485B000AF786065
:102DF0000B467B8013463B800023FB6000237B81D6
:102E00007B68FB60FB681833FB607B88012202FA59
:102E100003F37B817B681B8C9AB27B89DB439BB27B
:102E200013409AB27B681A847B88002B02D07B887F
:102E3000082B13D17B885B089BB21A46FB681344AE
:102E4000FB60FB68FA68126822F070021A60FB6887
:102E5000FA6811683A880A431A6016E07B88043BD6
:102E60009BB25B089BB21A46FB681344FB60FB688D
:102E7000FA68126822F4E0421A60FB68FA68126885
:102E80003988090289B20A431A601437BD465DF8D1
:102E9000047B704780B483B000AF78600B46FB7052
:102EA000FB78002B08D07B681B889BB243F00203A1
:102EB0009AB27B681A8007E07B681B889BB223F07C
:102EC00002039AB27B681A800C37BD465DF8047B1A
:102ED000704700BF80B483B000AF78600B467B8042
:102EE0007B88002B08D07B681B889BB243F00403CF
:102EF0009AB27B681A8007E07B681B889BB223F03C
:102F000004039AB27B681A800C37BD465DF8047BD7
:102F1000704700BF80B483B000AF78600B46FB7091
:102F2000FB78002B08D07B689B889BB243F0800322
:102F30009AB27B689A8007E07B689B889BB223F0FB
:102F400080039AB27B689A800C37BD465DF8047B9B
:102F5000704700BF80B483B000AF78600B467B80C1
:102F60007B681B889BB223F008039AB27B681A80A7
:102F70007B681B889AB27B8813439AB27B681A805D
:102F80000C37BD465DF8047B704700BF80B483B04A
:102F900000AF78600B467B807B689B889BB223F0F8
:102FA00070039AB27B689A807B689B889AB27B8810
:102FB00013439AB27B689A800C37BD465DF8047B58
:102FC000704700BF80B483B000AF78600B467B8051
:102FD0007B681B899BB223F007039AB27B681A8136
:102FE0007B681B899AB27B8813439AB27B681A81EB
:102FF0000C37BD465DF8047B704700BF80B483B0DA
:1030000000AF78600B467B807B681B899BB223F006
:1030100080039AB27B681A817B681B899AB27B888D
:1030200013439AB27B681A810C37BD465DF8047B66
:10303000704700BF80B483B000AF78600B467B80E0
:103040007B687A889A840C37BD465DF8047B7047AC
:1030500080B483B000AF78600B467B807B687A8851
:103060009A850C37BD465DF8047B704780B483B009
:1030700000AF78600B467B807B687A889A860C3735
:10308000BD465DF8047B704780B483B000AF7860C4
:103090000B467B807B687A881A870C37BD465DF8C3
:1030A000047B704780B483B000AF78600B467B80B0
:1030B0007B687A889A870C37BD465DF8047B704739
:1030C00080B483B000AF78600B467B807B687A88E1
:1030D000A3F840200C37BD465DF8047B704700BF65
:1030E00080B483B000AF78600B467B807B681B8B1D
:1030F0009BB223F00C039AB27B681A837B681B8B0C
:103100009AB27B8813439AB27B681A830C37BD4608
:103110005DF8047B704700BF80B483B000AF786077
:103120000B467B807B681B8B9BB223F440639AB277
:103130007B681A837B681B8B9AB27B881B029BB2CD
:1031400013439AB27B681A830C37BD465DF8047B43
:10315000704700BF80B483B000AF78600B467B80BF
:103160007B689B8B9BB223F00C039AB27B689A839B
:103170007B689B8B9AB27B8813439AB27B689A8355
:103180000C37BD465DF8047B704700BF80B483B048
:1031900000AF78600B467B807B689B8B9BB223F4EF
:1031A00040639AB27B689A837B689B8B9AB27B88D8
:1031B0001B029BB213439AB27B689A830C37BD46BD
:1031C0005DF8047B704700BF80B483B000AF7860C7
:1031D0000B467B807B681B889BB223F440739AB2BA
:1031E0007B681A807B681B889AB27B8813439AB2EB
:1031F0007B681A800C37BD465DF8047B704700BFC2
:1032000080B483B000AF78607B689B8E9BB2184619
:103210000C37BD465DF8047B704700BF80B483B0B7
:1032200000AF78607B681B8F9BB218460C37BD4699
:103230005DF8047B704700BF80B483B000AF786056
:103240007B689B8F9BB218460C37BD465DF8047BAC
:10325000704700BF80B483B000AF78607B68B3F87C
:1032600040309BB218460C37BD465DF8047B704772
:1032700080B483B000AF78607B689B8C9BB21846AB
:103280000C37BD465DF8047B704700BF80B483B047
:1032900000AF78607B681B8D9BB218460C37BD462B
:1032A0005DF8047B704700BF80B485B000AF7860E4
:1032B0000B467B800023FB737B681B8A9AB27B885A
:1032C00013409BB2002B02D00123FB7301E00023CB
:1032D000FB73FB7B18461437BD465DF8047B7047D3
:1032E00080B483B000AF78600B467B807B88DB4383
:1032F0009AB27B681A820C37BD465DF8047B704732
:1033000080B485B000AF78600B467B800023FB73F0
:103310000023BB8100237B817B681B8A9AB27B8858
:103320001340BB817B689B899AB27B8813407B8169
:10333000BB89002B05D07B89002B02D00123FB73B6
:1033400001E00023FB73FB7B18461437BD465DF894
:10335000047B704780B483B000AF78600B467B80FD
:103360007B88DB439AB27B681A820C37BD465DF8D6
:10337000047B704780B487B000AFF8600846114600
:103380001A4603467B810B463B811346FB80002394
:10339000BB820023FB82FB681B8C9BB223F00103E2
:1033A0009AB2FB681A84FB681B8BBB82FB681B8C80
:1033B000FB82BB8A23F0F303BB82FB881B019AB21A
:1033C0003B8913439AB2BB8A1343BB82FB681C4AF6
:1033D000934213D0FB681B4A93420FD0FB68B3F1B2
:1033E000804F0BD0FB68184A934207D0FB68174AFE
:1033F000934203D0FB68164A93420BD1FB8A23F019
:103400000203FB827A89FB8A13439BB243F00103D8
:10341000FB820AE0FB8A23F00A03FB827A89FB8A9B
:1034200013439BB243F00103FB82FB68BA8A1A8301
:10343000FB68FA8A1A841C37BD465DF8047B704726
:10344000002C01400034014000040040000800400E
:10345000000C004080B487B000AFF8600846114609
:103460001A4603467B810B463B811346FB800023B3
:10347000BB820023FB8200237B82FB681B8C9BB2F8
:1034800023F010039AB2FB681A84FB681B8BBB8283
:10349000FB681B8CFB827B891B017B82BB8A23F42C
:1034A00040731B051B0DBB82FB881B039AB2BB8AB2
:1034B0001343BB823B891B029AB2BB8A1343BB8274
:1034C000FB681C4A934213D0FB681B4A93420FD0FF
:1034D000FB68B3F1804F0BD0FB68184A934207D0CA
:1034E000FB68174A934203D0FB68164A93420BD1FC
:1034F000FB8A23F02003FB827A8AFB8A13439BB268
:1035000043F01003FB820AE0FB8A23F0A003FB8256
:103510007A89FB8A13439BB243F01003FB82FB685A
:10352000BA8A1A83FB68FA8A1A841C37BD465DF88A
:10353000047B7047002C014000340140000400402F
:1035400000080040000C004080B487B000AFF86075
:10355000084611461A4603467B810B463B811346BB
:10356000FB800023BB820023FB8200237B82FB685D
:103570001B8C9BB223F480739AB2FB681A84FB689D
:103580009B8BBB82FB681B8CFB827B891B027B8233
:10359000BB8A23F0F303BB82FB881B019AB23B89F1
:1035A00013439AB2BB8A1343BB82FB681C4A934203
:1035B00013D0FB681B4A93420FD0FB68B3F1804FD6
:1035C0000BD0FB68184A934207D0FB68174A934216
:1035D00003D0FB68164A93420BD1FB8A23F4007395
:1035E000FB827A8AFB8A13439BB243F48073FB828B
:1035F0000AE0FB8A23F42063FB827A89FB8A134367
:103600009BB243F48073FB82FB68BA8A9A83FB689F
:10361000FA8A1A841C37BD465DF8047B704700BFE8
:10362000002C01400034014000040040000800402C
:10363000000C004080B487B000AFF8600846114627
:103640001A4603467B810B463B811346FB800023D1
:10365000BB820023FB8200237B82FB681B8C9BB216
:1036600023F480539AB2FB681A84FB689B8BBB825D
:10367000FB681B8CFB827B891B037B82BB8A23F448
:1036800040731B051B0DBB823B891B029AB2BB8A90
:103690001343BB82FB881B039AB2BB8A1343BB82D2
:1036A000FB681D4A934213D0FB681C4A93420FD01B
:1036B000FB68B3F1804F0BD0FB68194A934207D0E7
:1036C000FB68184A934203D0FB68174A93420BD118
:1036D000FB8A23F40053FB827A8AFB8A13439BB252
:1036E00043F48053FB820CE0FB8A23F400735B04F9
:1036F0005B0CFB827A89FB8A13439BB243F48053B1
:10370000FB82FB68BA8A9A83FB68FA8A1A841C37A0
:10371000BD465DF8047B7047002C01400034014039
:103720000004004000080040000C004080B500AFDD
:1037300004200121FDF75CFB08200121FDF758FB67
:1037400010200121FDF754FB20200121FDF750FB43
:103750004FF480400121FDF74BFB01200121FDF7D3
:1037600047FB4FF400300121FDF760FB01200121F0
:10377000FDF75CFB80BD00BF80B582B000AF786014
:103780007B68264A93420AD14FF480400121FDF71D
:103790006BFB4FF480400021FDF766FB3AE07B684D
:1037A0001F4A93420AD14FF400300121FDF77AFB02
:1037B0004FF400300021FDF775FB2BE07B68194AC0
:1037C00093420AD14FF480200121FDF76BFB4FF4A7
:1037D00080200021FDF766FB1CE07B68124A9342C3
:1037E0000AD14FF400200121FDF75CFB4FF40020CB
:1037F0000021FDF757FB0DE07B680C4A934209D18D
:103800004FF480100121FDF74DFB4FF48010002193
:10381000FDF748FB0837BD4680BD00BF00380140BA
:103820000044004000480040004C00400050004070
:1038300080B58CB000AF786039600023FB62002354
:10384000BB6200237B6200233B620023FB617B6839
:10385000FB617B681B8A9BB2FB62FA6A4CF6FF73C2
:103860001340FB623B68DB881A46FB6A1343FB622A
:10387000FB6A9AB27B681A827B689B899BB2FB6267
:10388000FA6A4EF6F3131340FB623B689A883B6872
:103890001B8913439AB23B685B8913439BB21A4658
:1038A000FB6A1343FB62FB6A9AB27B689A817B686E
:1038B0009B8A9BB2FB62FA6A4FF6FF431340FB629E
:1038C0003B689B891A46FB6A1343FB62FB6A9AB208
:1038D0007B689A8207F108031846FDF7B7F9FB6980
:1038E0002E4A934202D17B69BB6201E03B69BB6215
:1038F0007B689B899BB29BB21BB2002B0CDABA6A25
:1039000013469B0013449A001A443B681B685B00F3
:10391000B2FBF3F37B620BE0BA6A13469B001344DD
:103920009A001A443B681B689B00B2FBF3F37B626E
:103930007B6A1B4AA2FB03235B091B01FB62FB6A38
:103940001B09642202FB03F37A6AD31A3B627B6889
:103950009B899BB29BB21BB2002B0CDA3B6ADB004B
:1039600032330F4AA2FB03235B0903F00703FA6A11
:103970001343FB620BE03B6A1B013233084AA2FB94
:1039800003235B0903F00F03FA6A1343FB62FB6A2C
:103990009AB27B681A813037BD4680BD003801403D
:1039A0001F85EB5180B483B000AF78607B684FF423
:1039B00016521A607B6800229A807B680022DA80A7
:1039C0007B6800221A817B680C225A817B68002266
:1039D0009A810C37BD465DF8047B704780B485B092
:1039E00000AF786039600023FB607B681B8A9BB264
:1039F000FB60FA684FF2FF031340FB603B681A88D4
:103A00003B685B8813439AB23B689B8813439AB226
:103A10003B68DB8813439BB21A46FB681343FB6089
:103A2000FB689AB27B681A821437BD465DF8047B46
:103A3000704700BF80B483B000AF78607B6800221D
:103A40001A807B6800225A807B6800229A807B68FB
:103A50000022DA800C37BD465DF8047B704700BF5A
:103A600080B483B000AF78600B46FB70FB78002B0E
:103A700008D07B689B899BB243F400539AB27B6861
:103A80009A8107E07B689B899BB223F400539AB22A
:103A90007B689A810C37BD465DF8047B704700BF98
:103AA00080B487B000AF78600B467B8013467B7094
:103AB00000233B610023FB600023BB6000237B618C
:103AC0007B687B617B88DBB25B09DBB23B617B8817
:103AD00003F01F03FB60FB68012202FA03F3BB60E3
:103AE0003B69012B03D17B690C337B6109E03B69A6
:103AF000022B03D17B6910337B6102E07B691433B5
:103B00007B617B78002B06D07B697A691168BA6883
:103B10000A431A6006E07B697A691168BA68D24381
:103B20000A401A601C37BD465DF8047B704700BF31
:103B300080B483B000AF78600B467B8013467B7007
:103B40007B78002B08D07B689B8A9AB27B881343D2
:103B50009AB27B689A8209E07B689B8A9AB27B88DA
:103B6000DB439BB213409AB27B689A820C37BD4606
:103B70005DF8047B704700BF80B483B000AF78600D
:103B80000B46FB707B681B8A9BB223F00F039AB233
:103B90007B681A827B681B8A9AB2FB789BB21343BC
:103BA0009AB27B681A820C37BD465DF8047B704779
:103BB00080B483B000AF78600B467B807B689B89C4
:103BC0009BB223F400639AB27B689A817B689B89DD
:103BD0009AB27B8813439AB27B689A810C37BD46B0
:103BE0005DF8047B704700BF80B483B000AF78609D
:103BF0000B46FB70FB78002B08D07B689B899BB23F
:103C000043F002039AB27B689A8107E07B689B8944
:103C10009BB223F002039AB27B689A810C37BD46AF
:103C20005DF8047B704700BF80B483B000AF78605C
:103C30000B467B807B681B8A9BB223F020039AB2E1
:103C40007B681A827B681B8A9AB27B8813439AB27C
:103C50007B681A820C37BD465DF8047B704700BF55
:103C600080B483B000AF78600B46FB70FB78002B0C
:103C700008D07B681B8A9BB243F480439AB27B686E
:103C80001A8207E07B681B8A9BB223F480439AB2B6
:103C90007B681A820C37BD465DF8047B704700BF15
:103CA00080B483B000AF78600B467B807B88C3F321
:103CB00008039AB27B689A800C37BD465DF8047B96
:103CC000704700BF80B483B000AF78607B689B888A
:103CD0009BB2C3F308039BB218460C37BD465DF890
:103CE000047B704780B483B000AF78607B689B89A9
:103CF0009BB243F001039AB27B689A810C37BD46B0
:103D00005DF8047B704700BF80B483B000AF78607B
:103D10000B46FB707B681B8B9BB2DBB29AB27B6855
:103D20001A837B681B8B9AB2FB789BB21B029BB2F7
:103D300013439AB27B681A830C37BD465DF8047B47
:103D4000704700BF80B483B000AF78600B46FB7053
:103D50007B681B8B9BB223F0FF039AB27B681A83AC
:103D60007B681B8B9AB2FB789BB213439AB27B6839
:103D70001A830C37BD465DF8047B704780B483B06E
:103D800000AF78600B46FB70FB78002B08D07B6897
:103D90009B8A9BB243F020039AB27B689A8207E029
:103DA0007B689B8A9BB223F020039AB27B689A823D
:103DB0000C37BD465DF8047B704700BF80B483B00C
:103DC00000AF78600B46FB70FB78002B08D07B6857
:103DD0009B8A9BB243F010039AB27B689A8207E0F9
:103DE0007B689B8A9BB223F010039AB27B689A820D
:103DF0000C37BD465DF8047B704700BF80B483B0CC
:103E000000AF78600B46FB70FB78002B08D07B6816
:103E10009B8A9BB243F008039AB27B689A8207E0C0
:103E20007B689B8A9BB223F008039AB27B689A82D4
:103E30000C37BD465DF8047B704700BF80B483B08B
:103E400000AF78600B46FB70FB78002B0AD07B68D4
:103E50009B899BB26FEA43436FEA53439AB27B68F4
:103E60009A8107E07B689B899BB2C3F30E039AB2E9
:103E70007B689A810C37BD465DF8047B704700BFB4
:103E800080B483B000AF78600B46FB70FB78002BEA
:103E900008D07B689B8A9BB243F400639AB27B682C
:103EA0009A8207E07B689B8A9BB223F400639AB2F4
:103EB0007B689A820C37BD465DF8047B704700BF73
:103EC00080B483B000AF78600B467B807B689B8AB0
:103ED0009BB223F004039AB27B689A827B689B8A28
:103EE0009AB27B8813439AB27B689A820C37BD469C
:103EF0005DF8047B704700BF80B483B000AF78608A
:103F00000B46FB70FB78002B08D07B689B8A9BB22A
:103F100043F002039AB27B689A8207E07B689B8A2F
:103F20009BB223F002039AB27B689A820C37BD469B
:103F30005DF8047B704700BF80B485B000AF786047
:103F40000B467B800023FB737B681B889AB27B88BF
:103F500013409BB2002B02D00123FB7301E000232E
:103F6000FB73FB7B18461437BD465DF8047B704736
:103F700080B483B000AF78600B467B807B88DB43E6
:103F80009AB27B681A800C37BD465DF8047B704797
:103F900080B487B000AF78600B467B800023FB6065
:103FA00000237B610023BB600023FB747B88DBB2B2
:103FB0005B09DBB2BB607B8803F01F037B617B691D
:103FC000012202FA03F37B61BB68012B07D17B68F6
:103FD0009B899BB21A467B6913407B6111E0BB68E9
:103FE000022B07D17B681B8A9BB21A467B69134060
:103FF0007B6106E07B689B8A9BB21A467B69134013
:104000007B617B881B0A9BB2FB60FB68012202FA82
:1040100003F3FB607B681B889BB21A46FB68134066
:10402000FB607B69002B05D0FB68002B02D00123CD
:10403000FB7401E00023FB74FB7C18461C37BD4673
:104040005DF8047B704700BF80B485B000AF786036
:104050000B467B800023FB810023BB817B881B0AEE
:10406000FB81FB89012202FA03F3BB81BB89DB439D
:104070009AB27B681A801437BD465DF8047B70479E
:1040800080B483B000AF03463960FB7197F9073005
:10409000002B0BDA0D49FB7903F00F03043B3A6860
:1040A000D2B21201D2B20B441A7609E0084997F94C
:1040B00007303A68D2B21201D2B20B4483F800231F
:1040C0000C37BD465DF8047B704700BF00ED00E093
:1040D00000E100E080B582B000AF78607B68013B12
:1040E000B3F1807F01D301230FE00A4A7B68013BD3
:1040F00053604FF0FF300F21FFF7C2FF054B002246
:104100009A60044B07221A60002318460837BD4600
:1041100080BD00BF10E000E080B500AF0348FFF7AE
:10412000D9FF6FF00400FDF729F880BD40548900E5
:1041300080B400AF044A044BDB6883F08003D36093
:10414000BD465DF8047B7047000C014080B500AFB0
:10415000FFF7ECFAFCF708F8FFF7DEFFFDF7EEFAE1
:10416000FDF74CFBFDF78CF9FCF750F8FEE700BFBC
:10417000024B13B1024800F005B870470000000080
:1041800091410008014600200246034600F016B89F
:1041900038B5084B084DED1AAC1018BFED1805D016
:1041A000013C55F8043D9847002CF9D1BDE8384052
:1041B00000F05CB8580400205C0400202DE9F047B2
:1041C000254C064625688846D5F8484192469946CA
:1041D000C4B360681F2817DC411C76B104EB800370
:1041E000C3F888A0D4F88851012282401543022EDA
:1041F000C4F88851C3F808911ED0831C6160002068
:1042000044F82380BDE8F087144B03B34FF4C87023
:10421000AFF300800446D0B1D5F84831002784E8D8
:1042200088003846C5F848410121C4F88871C4F8AF
:104230008C71002EE1D0D1E7D4F88C311A43C4F848
:104240008C21DAE705F5A674C5F84841C1E74FF0BF
:10425000FF30BDE8F08700BF884200080000000082
:10426000F8B500BFF8BC08BC9E467047F8B500BF63
:10427000F8BC08BC9E467047546865205265617062
:0C428000657200004300000028000020D0
:10428C0000000000010203040102030406070809F0
:10429C000204060800A24A0400000000000000000E
:1042AC0001020304060708090000000014030020A3
:1042BC007C030020E403002000000000000000004C
:1042CC0000000000000000000000000000000000E2
:1042DC000000000000000000000000008442000804
:1042EC0000000000000000000000000000000000C2
:1042FC0000000000000000000000000000000000B2
:10430C0000000000000000000000000000000000A1
:10431C000000000000000000000000000000000091
:10432C000000000000000000000000000000000081
:10433C000000000000000000000000000000000071
:10434C000000000000000000000000000000000061
:10435C0001000000000000000E33CDAB34126DE6FE
:10436C00ECDE05000B000000000000000000000067
:10437C000000000000000000000000000000000031
:10438C000000000000000000000000000000000021
:10439C000000000000000000000000000000000011
:1043AC000000000000000000000000000000000001
:1046DC0071410008310100080D01000800000000C4
:0400000508000000EF
:00000001FF
